:020000040800F2
:1000000040F30020A9010008C32100088116000860
:10001000C12100082D040008A92B000800000000E1
:10002000000000000000000000000000BD270008E4
:10003000AD04000800000000C5210008BF2700082B
:10004000C3010008C3010008C3010008C301000880
:10005000C3010008C3010008C3010008C301000870
:10006000C301000809050008C3010008C301000816
:10007000C3010008C3010008C3010008C301000850
:10008000C3010008C3010008C3010008000000000C
:10009000000000000000000000000000C301000894
:1000A000C3010008C3010008C3010008C301000820
:1000B000C3010008C3010008C3010008C301000810
:1000C000C3010008C3010008C3010008C301000800
:1000D000C3010008C3010008C301000800000000BC
:1000E000C3010008C3010008C301000800000000AC
:1000F000000000000000000000000000C301000834
:1001000000000000C3010008C3010008C30100088B
:1001100000000000000000000000000000000000DF
:10012000C3010008C3010008C3010008C30100089F
:10013000C3010008000000000000000000000000F3
:10014000000000000000000000000000C3010008E3
:10015000C3010008C3010008C3010008C30100086F
:10016000C3010008C30100080000000000000000F7
:10017000000000000000000000000000000000007F
:1001800000000000C30100080000000000000000A3
:10019000C3010008DFF80CD000F0A2F800480047C7
:1001A000F931000840F30020064880470648004720
:1001B000FEE7FEE7FEE7FEE7FEE7FEE7FEE7FEE717
:1001C000FEE7FEE759280008950100082DE9F05FD9
:1001D0000546002092469B468846064681464024B6
:1001E0001BE0284641464746224600F069F8534640
:1001F0005A46C01A914110D311461846224600F0C3
:1002000050F82D1A67EB01084F46224601200021C5
:1002100000F047F817EB00094E41201EA4F101043D
:10022000DFDC484631462A464346BDE8F09F40EAB7
:1002300001039B0703D009E008C9121F08C0042A64
:10024000FAD203E011F8013B00F8013B521EF9D24B
:100250007047D2B201E000F8012B491EFBD2704773
:100260000022F6E710B513460A4604461946FFF782
:10027000F0FF204610BD30B50B460146002020227D
:10028000012409E021FA02F59D4205D303FA02F5A3
:10029000491B04FA02F52844151EA2F10102F1DC03
:1002A00030BD202A04DB203A00FA02F1002070471A
:1002B0009140C2F1200320FA03F3194390407047A4
:1002C000202A04DB203A21FA02F00021704721FAAB
:1002D00002F3D040C2F12002914008431946704712
:1002E000064C074D06E0E06840F0010394E8070083
:1002F00098471034AC42F6D3FFF750FF2C7E00082D
:100300004C7E0008464910B54A6822F440324A60E3
:100310004A6843681A434A6001684A6822F4807256
:100320004A6001684A68036942EA03224A60016838
:100330004A6822F040724A6001684A6883681A433A
:100340004A6001688A6822F400628A6001688A68EB
:10035000C3681A438A60816A6FF07062D142016893
:100360008A6822F070628A6001688A680CD0836AA9
:100370001A438A6001688A6822F040528A600168E4
:100380008A68C36A1A4301E022F040528A60016819
:100390008A6822F002028A6001688A68037E42EA63
:1003A00043028A6090F82010002901684A680FD043
:1003B00042F400624A6001684A6822F460424A607E
:1003C00001684A68174C436A04EB43331A4301E05F
:1003D00022F400624A600168CA6A22F47002CA62AA
:1003E0000168CA6A838B104C04EB03531A43CA6238
:1003F00001688A6822F400728A6001688A6890F84D
:10040000303042EA43228A6001688A6822F48062BE
:100410008A6001688A68406942EA8020886010BD6D
:100420000023014000E0FFFF0000F0FFFEE70000B6
:1004300001681823CAB2103AB2FBF3F2054B6FF30E
:100440000901032A9B5CC36500D9091D8165084623
:1004500070470000EE44000810B5014600208B698B
:100460008A6A4FF0C07453B1B3F5005F15D072B112
:10047000012A0CD0022A0AD0032A09D104E01AB1B9
:10048000012A06D0022A03D1C96AC90100D5012078
:1004900010BDC96AA142FAD010BD002AF7D0012AC6
:1004A000F2D0022AF3D0032AF3D010BD7047000027
:1004B00070B50A4D1021284600F0C0FA084C08B962
:1004C000207840B11021284600F0B8FA012801D167
:1004D0000020207070BD01206070FAE70004024027
:1004E0001C0000200448417819B10021417001200E
:1004F00070470020704700001C0000200148406841
:10050000704700001C00002070B5134801680907FF
:1005100020D50821016000F0A3FA104CA168401A10
:10052000052817D300F09CFAA168401AC821B1FB36
:10053000F0F505B901254FF40041094800F07EFAB5
:100540000028606801D0284400E0401B606000F093
:1005500087FAA06070BD0000143C01401C00002020
:100560000000024072B6FEE778B50024009490F8CF
:100570003C20012A19D0012280F83C200A68072378
:100580000568092A13D9EE680A3A02EB4202934041
:100590009E43EE600B788A680A3B03EB43039A4064
:1005A0000368DD682A43DA6010E0022078BD2E6916
:1005B00002EB420293409E432E610B788A6803EB64
:1005C00043039A4003681D692A431A614A681F233E
:1005D000072A13D205686E6B521E02EB820293400B
:1005E0009E436E630B790A885B1E92B203EB830312
:1005F0009A4003685D6B2A435A6327E005680D2A19
:1006000012D22E6BD21F02EB820293409E432E63C6
:100610000B790A88DB1F92B203EB83039A400368CD
:100620001D6B2A431A6311E0EE6A0D3A02EB820257
:1006300093409E43EE620B790A880D3B92B203EB26
:1006400083039A400368DD6A2A43DA62164B056821
:10065000144A9D4206D10D68122D03D1556845F408
:100660008005556005689D4218D10B68102B01D09C
:10067000112B13D1536843F4000353600968102908
:100680000CD10A490A4A0968B1FBF2F101EB810178
:10069000490000E0491E00910029FBD180F83C4050
:1006A000002078BD00230140002001400C00002004
:1006B00040420F0070B504004FF0000503D0206CDD
:1006C000002610B107E0012070BD204600F01CF8A4
:1006D000666484F83C60206CC00610D4206C20F462
:1006E000885040F0020020642046FFF70BFE66644D
:1006F000206C20F0020040F00100206400E00125A1
:1007000084F83C60284670BD10B586B004461421BC
:100710006846FFF7A5FD1149206888421CD11048A2
:100720000021026842F480720260006800F4807068
:1007300005900B481438026842F00102026000681C
:1007400000F001000590012000900320CDE9010197
:100750006946044800F084F806B010BD002001404E
:1007600044380240000002402DE9F041044600F008
:1007700077F906465CB1002584F83450022084F8ED
:1007800035002068016821F0010101600DE00120C1
:10079000BDE8F08100F064F9801B052805D9202010
:1007A0006065032084F83500F2E720680068C00720
:1007B000F0D12268116820480140D4E901031843B0
:1007C000D4E903363343184363691843A3691843D4
:1007D000E3691843236A18430843616A042903D173
:1007E000D4E90B1319430843106020684069666A16
:1007F00020F0070130460E43012704280CD1A06ADF
:100800000643E06A40B12046FFF726FE20B14020B3
:10081000606584F83570BAE7206846612046FFF7C6
:1008200007FE94F85C203F2191408160656584F863
:1008300035700020ACE700003F8010F070B5044632
:1008400000F00EF90546601C02D00448007804440C
:1008500000F006F9401BA042FAD370BD0000002052
:100860002DE9F84FDFF8B4A1002201240AF1040BAE
:1008700003254FF00F090BF1040E00BF0B6804FABB
:1008800002F63340B34272D10F7907F00307012F0C
:1008900001D0022F16D187684FEA420805FA08FCFA
:1008A00027EA0C07D1F80CC00CFA08FC4CEA070C3C
:1008B000C0F808C04768B7430E79C6F300169640E3
:1008C0003E4346600E79F643B6070DD0C768560022
:1008D00005FA06FC27EA0C07D1F808C00CFA06FC5A
:1008E0004CEA070CC0F80CC00E7906F00306022E85
:1008F00010D1D60800EB8608D8F8206057074FEAD9
:10090000D76C09FA0CF7BE430F6907FA0CF73743A7
:10091000C8F8207006684FEA420C05FA0CF7BE438F
:100920000F7907F0030707FA0CF7374307604E68A3
:10093000F6006DD53A4E376847F480473760366821
:1009400022F0030706F480460096364E07EB060CAD
:10095000DCF8086897073F0F09FA07F826EA080647
:10096000DFF8C480404503D14FF000081EE04FE09F
:10097000DFF8B880404502D14FF0010816E0DFF8FB
:10098000B080404502D14FF002080FE0DFF8A480AC
:10099000404502D14FF0030808E0DFF89C80404555
:1009A00002D14FF0040801E04FF0070808FA07F8F9
:1009B00048EA0608CCF80888DAF800605746D1F80B
:1009C00004C09E435FEACC3C00D51E433E60DBF88A
:1009D00000605F46D1F804C09E435FEA8C3C00D5BE
:1009E0001E433E60DEF800607746D1F804C09E43A7
:1009F0005FEACC2C00D51E433E60084F0C373E68A2
:100A0000D1F804C09E435FEA8C2C00D51E433E60A3
:100A1000521C102AFFF432AFBDE8F88F003C0140B1
:100A2000443802400030014000000240000402400F
:100A300000080240000C024000100240006908401B
:100A400000D001207047426921EA02030A4043EACC
:100A50000241816170470AB1816170470904FBE777
:100A6000014880687047000000000020024881684B
:100A70000278114481607047000000200B4810B5D7
:100A8000016841F400710160016841F48061016016
:100A9000016841F480710160032000F071F80020CA
:100AA00000F006F800F024F8002010BD003C0240E1
:100AB00070B50D4D04464FF47A712878B1FBF0F013
:100AC0000A490968B1FBF0F000F0E6FB48B9102CC8
:100AD00007D200222146501E00F032F800206C6040
:100AE00070BD012070BD0000000000200C0000203F
:100AF0000B4882B0016841F480410160006800F455
:100B0000804000900648001F016841F0805101605C
:100B1000006800F080500090052002B000F030B86E
:100B200044380240002809DB00F01F0201219140F7
:100B30004009800000F1E020C0F80011704700007B
:100B4000F0B40E4B1B680C46C3F30223C3F1070538
:100B5000042D00D90425191D072901D2002300E026
:100B6000DB1E012606FA05F1491E214099409E40F0
:100B7000761E16403143F0BC02F03BB80CED00E0AD
:100B8000064900F0070208684FF6FF03184040EAE4
:100B90000220034A10430860704700000CED00E09B
:100BA0000000FA052DE9F0470E46050065D0DFF894
:100BB0001481D8F80000F7B200F00700B04207D265
:100BC00088F80070D8F8000000F00700B04254D157
:100BD00028683D4C810712D5400703D5206840F4B2
:100BE000E05020602878000703D5206840F460407A
:100BF00020602068A96820F0F00008432060287871
:100C0000C0072DD0304968680839012812D0022861
:100C100013D0032811D00968890700292DDA21682B
:100C200021F0030101432160FFF71AFF814641F2E1
:100C3000883A0EE009688903EFE709688901ECE763
:100C4000FFF70EFFA0EB0901514502D90320BDE8D3
:100C5000F0872068696800F00C00B0EB810FEFD1DD
:100C6000D8F80010404601F00701B14207D90770DB
:100C7000006800F00700B04201D00120E7E72878C3
:100C8000400705D52068E96820F4E050084320605B
:100C90002878000706D52068296920F4604040EADA
:100CA000C100206000F038F82168084AC1F3031140
:100CB000515CC8400649086006480068FFF7F8FE26
:100CC0000020C4E7003C024008380240F644000817
:100CD0000C00002004000020044805490068096851
:100CE000044AC1F38221515CC84070470C000020C7
:100CF00008380240064500080448054900680968AC
:100D0000044AC1F34231515CC84070470C000020D6
:100D10000838024006450008154810B5006810F074
:100D20000C02144813D01449042A0FD0082A0ED1FB
:100D30000F4C241F2268236802F03F025B0207D594
:100D40002068C0F38810A0FB010106E0084610BD32
:100D50002168C1F38811A1FB00010023FFF736FAD7
:100D60002168C1F30141491C4900B0FBF1F010BDFD
:100D7000083802400024F40040787D012DE9F84F46
:100D800004006ED02078DFF84C93C007A9F1040569
:100D90004AD009F104000168C1F38101012908D09A
:100DA0000068C0F3810002280AD1D9F8000040028F
:100DB00006D52868800337D560680028E1D033E085
:100DC0006068B0F5803F10D0B0F5A02F286810D033
:100DD00020F480302860286820F480202860606833
:100DE000A8B1FFF73DFE06460DE0286840F48030CC
:100DF000F4E740F480202860F7E700BFFFF730FEFB
:100E0000801B642873D828688003F7D50CE0FFF7AF
:100E100027FE064605E000BFFFF722FE801B642880
:100E2000F0D828688003F7D42078DFF8AC828007F8
:100E30004FF0000A3ED5A748001D016811F00C0FC5
:100E400008D00068C0F3810002280BD1D9F8000057
:100E5000400207D42868800716D5E068012800D131
:100E600012E033E1E068B8B10120C8F80000FFF7F4
:100E7000F7FD064605E000BFFFF7F2FD801B0228E4
:100E8000C0D828688007F7D52868216920F0F800C5
:100E900040EAC10028600DE0C8F800A0FFF7E0FDBF
:100EA000064604E0FFF7DCFD801B02281FD82868F7
:100EB0008007F7D42078000722D5864F87486169DC
:100EC000703771B101210160FFF7CAFD064604E0E9
:100ED000FFF7C6FD801B022809D838688007F7D5C0
:100EE0000EE0C0F800A0FFF7BBFD064605E082E07B
:100EF000FFF7B6FD801B02287DD838688007F7D43D
:100F00002078400768D5DFF8CCB100270BF13C0B07
:100F1000DBF80000C0000BD4DBF8001041F080517A
:100F2000CBF80010DBF80000012700F080500090A3
:100F30006B4E3068C00510D4306840F4807030606B
:100F4000FFF78EFD009005E0FFF78AFD0099401A3B
:100F5000022850D83068C005F6D55E4EA0686C36C1
:100F600001280FD00528306810D020F00100306033
:100F7000306820F004003060A068B8B1FFF770FD61
:100F800000900FE0306840F00100F4E740F004000A
:100F90003060F7E7FFF764FD0099411A41F28830AD
:100FA000814266D830688007F4D50EE0FFF758FD1F
:100FB000009007E0FFF754FD0099411A41F2883094
:100FC000814256D830688007F4D42FB1DBF8001086
:100FD00021F08051CBF80010A069C8B33D49091D2C
:100FE0000968C1F3810102294AD00228504607D07E
:100FF000C8F8600000E03CE0FFF732FD04463BE04B
:101000004746C8F86000FFF72BFD064605E000BF25
:10101000FFF726FD801B02282BD828688001F7D413
:10102000D4E907010843A16A2E4A490802EB0141AD
:10103000626A41EA8211084394F82C1040EA016187
:10104000C9F8001001203866FFF70AFD044606E0E3
:101050003EE000BFFFF704FD001B022809D8286806
:101060008001F7D534E000BFFFF7FAFC001B02282F
:1010700002D90320BDE8F88F28688001F4D427E066
:101080000128F7D0D9F80000E26900F4800191420C
:101090001CD1226A00F03F01914217D147F6C0717E
:1010A000626A0140B1EB821F10D1A26A4FF0FF3398
:1010B00000F4403103EB5202B1EB024F06D194F839
:1010C0002C1000F07060B0EB016F01D00120D1E76F
:1010D0000020CFE70438024000004742800E47421C
:1010E000007000400000FFFF70B5040009D0606A86
:1010F000002540B125616561A56294F8510040B1B9
:101100000CE0012070BD6068B0F5827FF4D0E5612D
:10111000F2E784F85050204600F044F8022084F8AA
:1011200051002068016821F040010160A0882189F8
:1011300000F4827001F404410843A18901F40061C4
:101140000843217C01F002010843217D01F00101E7
:101150000843218B01F400710843217F01F038011D
:10116000084394F8201001F080010843218D01F418
:101170000051084321680860A069042101EA104079
:1011800094F8241001F01001084321684860206899
:10119000C16921F40061C1616565012084F85100D5
:1011A000002070BDF0B587B0064614216846FFF7F1
:1011B00057F8324F306800253149022203230524B5
:1011C000B84233D12E481430076847F4805707607F
:1011D000006800F480500590086840F00100086045
:1011E0000868694600F001000590E0208DE82500C0
:1011F000CDE903342348FFF733FB244C2248206019
:101200004FF0C06060604020C4E90205256165615F
:10121000A561E561256220466562FFF7A5FA08B180
:10122000FFF7A0F9B464A66307B0F0BD184EB04252
:10123000FAD113481030066846F48046066000680C
:1012400000F480400590086840F0020008600868DB
:10125000694600F0020005904FF420408DE825001B
:10126000CDE903340B48FFF7FBFA00221146242096
:10127000FFF766FC2420FFF755FCD5E7003001405E
:10128000303802400000024088640240C80100205B
:10129000003800400004024010B5401EB0F1807FCD
:1012A00001D3012010BD4FF0E02460610F216017D1
:1012B00001F09FFC0020A06107202061002010BDEC
:1012C00070B590F83C20012A2CD0012480F83C40D5
:1012D000022280F83D2003685A689D6822F070065B
:1012E0000A6832435A60104B02689A420ED0B2F13B
:1012F000804F0BD00D4B9A4208D00D4B9A4205D02F
:101300000C4B9A4202D00C4B9A4204D1496825F00A
:1013100080031943916080F83D40002180F83C1023
:10132000084670BD022070BD00000140000400406E
:1013300000080040000C00400040014010B586B09D
:10134000044614216846FEF78BFF0E492068884248
:1013500015D10D480021026842F0020202600068C7
:1013600000F0020005904FF4707000900220CDE96B
:101370000101CDE9031069460448FFF771FA06B090
:1013800010BD000000080040303802400004024058
:1013900070B5044690F83C000D4601280AD00120A3
:1013A00084F83C0042B1042A18D0082A2AD00C2A1A
:1013B0004DD139E0022070BD206801F0A7FA206805
:1013C000816941F0080181612068816921F004018F
:1013D0008161206881692A69114311E0206801F068
:1013E000BDFA2068816941F40061816120688169EA
:1013F00021F480618161206881692A6941EA0221C2
:10140000816124E0206801F0D5FA2068C16941F0CB
:101410000801C1612068C16921F00401C16120682F
:10142000C1692A69114311E0206801F0EFFA2068D0
:10143000C16941F40061C1612068C16921F4806122
:10144000C1612068C1692A6941EA0221C1610020A5
:1014500084F83C0070BD10B5040003D094F83D0042
:1014600010B107E0012010BD002084F83C002046A8
:1014700000F01EF8022084F83D00211D206801F0D4
:10148000F9F9012084F8460084F83E0084F83F0012
:1014900084F8400084F8410084F8420084F8430056
:1014A00084F8440084F8450084F83D00002010BD15
:1014B00008B500680B49884212D10B48016841F019
:1014C000040101600068002200F004000090114651
:1014D0001E20FFF735FBBDE808401E20FFF722BBAA
:1014E00008BD0000000800404038024070B504000C
:1014F00004D094F83D00002510B106E0012070BD35
:1015000084F83C50204600F023F8242084F83D0065
:101510002068C16821F40051C160204601F0BEFA84
:101520002068016921F4904101612068416921F03E
:101530002A0141612068C16841F40051C1602564FD
:10154000202084F83D0084F83E00002070BD00009B
:101550002DE9F04186B0064614216846FEF780FE6C
:101560004249DFF804C13768404814390222032594
:101570003F4B002467454ED1076847F010070760CE
:10158000006800F010000590086840F00100086055
:101590000868694600F00100059068028DE8350092
:1015A000072004901846FFF75BF9334D31484FF0A0
:1015B0000067E5E8020740204FF48068A5E81101C4
:1015C0002D4845F81449AC61EC612C626C62FFF760
:1015D000CBF808B1FEF7C6FF7563AE63264D25480C
:1015E000603578382860C5E90174C5E903486C6145
:1015F000AC61EC612C6228466C62FFF7B5F808B16B
:10160000FEF7B0FFB563002211462520AE63FFF759
:1016100097FA252022E0194EB74221D1066846F0FC
:1016200020060660006800F020000590086840F081
:10163000010008600868694600F0010005904FF459
:10164000C0508DE83500082004901846FFF708F9CF
:10165000002211464720FFF773FA4720FFF762FA8E
:1016600006B0BDE8F081000000100140443802409F
:1016700000000240B8640240F8020020001401405B
:10168000FEE710B50446002002F0DAFEC4F307407E
:1016900001F07CF8C4F3072001F078F804F0F800BA
:1016A00001F074F8002000F006F80446012002F072
:1016B000C7FE204610BD01F069B870B504460D465E
:1016C000002002F0BDFEC4F3074001F05FF8C4F350
:1016D000072001F05BF804F0F800001DC0B201F033
:1016E00055F8284601F052F8BDE87040012002F09C
:1016F000A7BE2DE9F04107461C4615460E462A2096
:1017000000F042FBBF1CB8B200F033FBAD1CA8B226
:1017100000F02FFB2B2000F037FB761CB0B200F05E
:1017200028FB641CA0B200F024FBBDE8F0412C2093
:1017300000F02ABB2DE9FE4F161ACDE900104FF03C
:1017400000085D1A47464FF0FF30002E02DD4FF0D3
:10175000010102E003D14FF000018B4602E0834615
:10176000C6F10006002D02DD4FF0010002E003D1BA
:101770004FF00000824602E08246C5F10005AE420D
:1017800001DD344600E02C46601C4FF00009029059
:1017900019E000980C9A81B2019880B200F018F814
:1017A000B0442F44A04504DD0198A8EB0408584438
:1017B0000190A74203DD00983F1B5044009009F1BF
:1017C00001001FFA80F902998945E2DBBDE8FE8F2E
:1017D00010B514460B460246FFF78BFF2046BDE8C6
:1017E000104000F0C6BA000070B5184D049C2C8063
:1017F000141A5D1A6C435B1E521EA5B29BB292B2C4
:10180000FFF777FF124E3068016821F04001016058
:10181000104C206840F4006020603068016841F09E
:10182000400101602946094802F076FD2068C04366
:101830002060206840F4006020602068C043206081
:101840003068016841F04001016070BD1200002065
:10185000180100200030014010B5182000F06CFF86
:101860007D4C002201212046FFF7F5F86420FEF7A9
:10187000E5FF012211462046FFF7EDF86420FEF750
:10188000DDFF012202212046FFF7E5F86420FEF784
:10189000D5FF112000F078FA7820FEF7CFFFB120B5
:1018A00000F072FA052000F083FA3C2000F080FA84
:1018B0003C2000F07DFAB22000F066FA052000F02E
:1018C00077FA3C2000F074FA3C2000F071FAB32063
:1018D00000F05AFA052000F06BFA3C2000F068FA9C
:1018E0003C2000F065FA052000F062FA3C2000F090
:1018F0005FFA3C2000F05CFAB42000F045FA0320C7
:1019000000F056FAC02000F03FFA282000F050FA0C
:10191000082000F04DFA042000F04AFAC12000F03F
:1019200033FAC02000F044FAC22000F02DFA0D2056
:1019300000F03EFA002000F03BFAC32000F024FA49
:101940008D2000F035FA2A2000F032FAC42000F091
:101950001BFA8D2000F02CFAEE2000F029FAC520A9
:1019600000F012FA1A2000F023FA362000F00CFAE8
:10197000C02000F01DFAE02000F006FA042000F07C
:1019800017FA222000F014FA072000F011FA0A20BA
:1019900000F00EFA2E2000F00BFA302000F008FACA
:1019A000252000F005FA2A2000F002FA282000F095
:1019B000FFF9262000F0FCF92E2000F0F9F93A207A
:1019C00000F0F6F9002000F0F3F9012000F0F0F942
:1019D000032000F0EDF9132000F0EAF9E12000F017
:1019E000D3F9042000F0E4F9162000F0E1F9062014
:1019F00000F0DEF90D2000F0DBF92D2000F0D8F921
:101A0000262000F0D5F9232000F0D2F9272000F09D
:101A1000CFF9272000F0CCF9252000F0C9F92D20BE
:101A200000F0C6F93B2000F0C3F9002000F0C0F937
:101A3000012000F0BDF9042000F0BAF9132000F0F5
:101A4000B7F93A2000F0A0F9052000F0B1F9BDE89F
:101A50001040292000F098B9000402402DE9FF4F02
:101A600081B00446DDF83C9000904FEA59074FF0F2
:101A70000008780700D0012000EBD70000FB09FB2D
:101A8000203AD0B20390029802994844401E83B293
:101A9000E019401E82B22046FFF72BFE002553E0DE
:101AA000B9F10C0F2AD0B9F1100F2ED0B9F1180FDF
:101AB0002ED0B9F1200F49D12749039801EB8010AE
:101AC000002610F805A0109800284FF0010000FA39
:101AD00006F000EA0A0022D020B12046049A0299BA
:101AE000FFF776FE641C0098A4B2201AB84225D1F4
:101AF0000298009C401C80B2029023E00398174992
:101B000000EB400001EB8000DAE71549039803E0A1
:101B10000398144900EB400001EB0010D0E708B136
:101B2000049800E00E9800F024F908F10100C0B21A
:101B3000B0FBF7F1804607FB118050B1761CF6B27E
:101B4000082EC0D36D1CADB25D45A9D305B0BDE86C
:101B5000F08F4FF00008F5E7426100080E450008DD
:101B600082490008724F00082DE9FF4F4FF0000A2C
:101B70002DED020B9B4615462DED028B85B0B0EE88
:101B8000408ADDE917864146B5EEC08A8DE84204F9
:101B90007708F1EE10FA169B044605DB202220465A
:101BA0000A99FFF75BFF06E02D2220460A99FFF70E
:101BB00055FFB1EE488AB2EE040AE01968EE000A59
:101BC00000EE10BA1FFA80F90024B8EE400A20EEA9
:101BD000800ABCEEC00A10EE100A80B2049032E017
:101BE000281B401EC1B20A2001F0B0FF0499B1FBCE
:101BF000F0F00A21B0FBF1F201FB12000390A5EB1B
:101C00000B00A0420FD1CDE9008600FB0790CDF874
:101C100008A080B22E22169B0A99FFF71FFF641CB2
:101C20006D1CE4B2EDB20398CDE900863030C2B24B
:101C300004FB0790CDF808A080B2169B0A99FFF725
:101C40000DFF641CE4B2AC42CAD305B0BDEC028BFC
:101C500006B0BDE8F08F2DE9FF4F83B04FF0000BC9
:101C6000DDE91195DA4649468DE822041F46109BAE
:101C7000160004464FEA550805D420222046049950
:101C8000FFF7ECFE06E02D2220460499FFF7E6FE62
:101C9000704206B204EB080080B20024039030E0EA
:101CA000381B401EC1B20A2001F050FFB6FBF0F015
:101CB0000A21B0FBF1F201FB1200BBF1000F05D1CC
:101CC000791E8C4202DA68B14FF0010B3030C2B29B
:101CD0000398CDE9009504FB0800CDF808A080B278
:101CE000109B09E0CDE900950398109B04FB0800C8
:101CF000CDF808A080B220220499FFF7AFFE641C43
:101D0000E4B2BC42CCD307B0BDE8F08F70B502FBA3
:101D100003F40B4402444FF6FF765B1E521E06EAA4
:101D200044049BB292B2049DFFF7E3FC214628468F
:101D3000BDE8704002F06EBA2DE9FE4F9946DDE92C
:101D40000D6714468A460546DDF830800CE0CDF874
:101D500000804B4651462846CDE90167FFF77EFEDD
:101D600005EB560085B2641C2278002AEFD1BDE84D
:101D7000FE8F10B50446000A00F01AF8E0B2BDE884
:101D8000104000F015B8000070B5084C0546002260
:101D900004212046FEF75FFE284600F009F82046A1
:101DA000BDE8704001220421FEF755BE0004024048
:101DB00070B50D4C0546002221886068FEF74BFE89
:101DC0000A49CD600A4800688268D2431206FBD5F2
:101DD0008268D243D207FBD1C86821886068BDE819
:101DE00070400122FEF737BE140000200030014091
:101DF000180100207FB50024154800940194029436
:101E00001249039401604FF48031C0E90114046168
:101E1000047680F820400F49C0E90A140125C56105
:101E2000C46080F830404561FEF744FC08B1FEF71D
:101E300099FBCDE90045694605480294FEF794FBFD
:101E4000002801D0FEF78EFB7FBD0000002001407E
:101E5000D00000200100000F114808B5016841F4CE
:101E6000800101600068002200F4800000901146AB
:101E70003A20FEF765FE3A20FEF754FE0022114696
:101E80004420FEF75DFE4420FEF74CFE0022114682
:101E90004620FEF755FEBDE808404620FEF742BE4C
:101EA000303802402DE9F04186B014216846FEF733
:101EB000D7F957480024016841F004010160016826
:101EC00001F004010591016841F0800101600168A1
:101ED00001F080010591016841F001010160016894
:101EE00001F001010591016841F002010160006803
:101EF000484E00F002004FF460450590002229464C
:101F00003046FEF7A8FD444F012212213846FEF765
:101F1000A2FD00220C213846FEF79DFDDFF8FC8073
:101F2000012245F223014046FEF795FD002240F2D2
:101F300004414046FEF78FFD00950125CDE901548F
:101F4000694630460394FEF78BFC12200326CDE948
:101F50000005CDE9024669463846FEF781FC0C20B3
:101F60000090CDE90154694638460394FEF778FCA9
:101F7000CDE90065CDE9025669464046FEF770FCA2
:101F800040F22440CDE90005CDE9024669464046CD
:101F9000FEF766FC28030090CDE9015469464046EF
:101FA0000394FEF75DFCA803CDE900050220CDE90E
:101FB000024069464046FEF753FC2802009018484C
:101FC000CDE9010469463846FEF74AFCE8038DE88E
:101FD000310069463846FEF743FC0820009011485E
:101FE000CDE9010569464046FEF73AFC10208DE830
:101FF000310069464046FEF733FC002203210920E8
:10200000FEF79EFD0920FEF78DFD06B0BDE8F081CC
:102010003038024000080240000002400004024044
:102020000000111000002110104810B50E49016089
:102030004FF482714160002102228160C0E90312E5
:10204000012242615202C0E90621016241628162BD
:102050000A21C162FFF748F8002803D0BDE810400C
:10206000FEF780BA10BD00000030014018010020CA
:102070000E4810B50C49016000214FF48062C0E9A0
:102080000112C16052100161C0E905120162416292
:1020900081620A21C162FFF727F8002803D0BDE85A
:1020A0001040FEF75FBA10BD0038004070010020FC
:1020B00010B58AB0002407941C2168460894FEF7E6
:1020C000CFF82248204901605421C0E901144FF49F
:1020D0007A71C0E903148461FFF7BDF908B1FEF716
:1020E00041FA079407A919480894FFF7E9F808B1DD
:1020F000FEF738FA6020CDE9000402940022694618
:1021000012480494FFF744F908B1FEF72BFA0422B1
:1021100069460E48FFF73CF908B1FEF723FA08229A
:1021200069460A48FFF734F908B1FEF71BFA0C229A
:1021300069460648FFF72CF908B1FEF713FA034881
:10214000FFF7FCF80AB010BD00080040280200208C
:102150000C4810B50A4901604FF4E131416000219B
:1021600081600C22C160C0E904128161C161FFF786
:10217000BDF9002803D0BDE81040FEF7F3B910BD4B
:1021800000100140700200200C4810B50A4901609F
:102190004FF461214160002181600C22C160C0E9DF
:1021A00004128161C161FFF7A1F9002803D0BDE8E5
:1021B0001040FEF7D7B910BD00140140B402002052
:1021C000FEE7FEE7704700002DE9F34F00202DEDFC
:1021D000068B83B001F00AF8E0B322285DD1FD4CF4
:1021E00001266670002000F0D5FF400703D50421CA
:1021F000002001F03DFF002000F0D2FF02004CD093
:10220000F5480090F54BF649002001F08BFD07469C
:10221000F248DFF8D093DFF8D0A3C0789FEDF3AA9F
:10222000F1EE069AB6EE009AB1EE048ADFEDF08A7E
:10223000EB49002514394FF010084FF4FC6B2C28A3
:1022400016D0372829D1E6480278C52A7CD0B52A8D
:102250007BD049E1FFE703B00023BDEC068B02B061
:1022600041F288320221BDE8F04F184601F046BF26
:10227000DB480278C52A04D0B52A13D0A52A78D025
:1022800005E14278C52AFBD18278C37800791A44E7
:10229000D2B2904201D1C88A208103B0BDEC068B36
:1022A000BDE8FC8F4278B52AEAD1D24BC9F800309C
:1022B000AAF800808278C37890F805C01A440379A0
:1022C000474663441A4483791A44C379007A1A440E
:1022D000D2B29042E1D18A46D1F816106161BAF8C3
:1022E0001A002081207988BBFEF7BAFB6062A16AE0
:1022F000401A00F59670B0F5167F4CD86089A0386A
:1023000000EE100A2089F8EEC00A643800EE100AC8
:10231000B8EEC00A00F07EFC20EE0A0A022300217B
:1023200084ED040A2078401CC2B22270CDF800B0BF
:10233000CDE901576420FFF78EFCA949002094EDF8
:10234000040A1439227824E0BEE0CAE023E000BF8A
:1023500001EB8003D3ED000AF4EEC00AF1EE10FAAF
:1023600015D201EB8003401CD3ED000A83ED000A77
:1023700008E088E001EB820C521E1CED010AD2B28B
:102380008CED000A8242F5D8C3ED010A03E0401C3F
:10239000C0B29042DCD36079DFF85C92D0BB94EDA0
:1023A000050A30EE690A84ED050AA078401CC2B225
:1023B000A2700021484622E000EB8103D3ED000A21
:1023C000F4EEC00AF1EE10FA17D200EB8103944646
:1023D000D3ED000A83ED000A491C09E000EB8C08EC
:1023E000ACF1010C18ED010A0CF0FF0C88ED000AAD
:1023F0008C45F3D8C3ED010A03E0491CC9B29142F0
:10240000DAD3CDF800B0CDE9015700210223084608
:10241000FFF721FC2078052821D37148774914382B
:102420008068E0602671CAF800508AF8045088423B
:1024300002DA84ED038A04E07149884201DDC4EDCB
:10244000038AA078E178401A40B2022802DBC4ED8A
:10245000038A04E010F1020F01DC84ED038AA07806
:102460000A28FFF41AAF99ED040AD9ED050A0A21EA
:10247000614830EE200A20EE090A84ED070AFDF7D4
:10248000EFFE667109E74078A52800D165630998D9
:10249000616B3A4608445249FDF7C9FE606B45F648
:1024A000C051384460638842ECD35249C9F80010E7
:1024B000AAF800800998002100905E238022084637
:1024C000FFF724FC6563E8E64378C52B0CD18378DD
:1024D000C67833440679DBB29E4205D1C98A618150
:1024E00002E04378B52B06D0464909780029C9D1C6
:1024F000A52A6ED0FBE03F4B0222C9F80030AAF8B3
:1025000000208278C37847791A4403793B441A44FF
:1025100083791A44C379007A1A44D2B29042B1D175
:102520008946D1F81610A161B9F81A0060812079A6
:1025300078BBFEF795FAA062616A081A00F59670FA
:10254000B0F5167F64D86089A03800EE100A2089A3
:10255000F8EEC00A643800EE100AB8EEC00A00F0C7
:1025600059FB20EE0A0A0223002184ED040A207898
:10257000401CC2B22270CDF800B0CDE901586420F1
:10258000FFF769FB164A002194ED040A143A2078FB
:102590003CE03DE002EB8103D3ED000AF4EEC00A1B
:1025A000F1EE10FA30D202EB8103491CD3ED000AA0
:1025B00083ED000A08E000BF02EB8007401E17ED24
:1025C000010AC0B287ED000A8842F5D8C3ED010ABE
:1025D0001EE088E090000020540000205000002001
:1025E000B0CF0020180000201400002033336542D3
:1025F0000000AA4200000240F0EE00200000A040CF
:102600000000AA4266000020491CC9B28142C1D321
:10261000A079464FC0BB94ED060A30EE690A84EDFE
:10262000060AE078401CC2B2E270002121E000BF3F
:1026300007EB8100D0ED000AF4EEC00AF1EE10FACB
:1026400015D207EB81031046D3ED000A83ED000A93
:10265000491C07E007EB800C401E1CED010AC0B2CC
:102660008CED000A8842F5D8C3ED010A03E0491C4D
:10267000C9B29142DCD3CDF800B0CDE901580021B8
:1026800002230846FFF7E7FA2078052817D32848E1
:1026900090ED020A84ED030A2671C9F8005089F80A
:1026A0000450A078E178401A40B2022802DB84EDA1
:1026B000038A04E010F1020F01DCC4ED038AE07824
:1026C0000A28FFF4DFAE97ED040AD7ED050A0A21C8
:1026D000164830EE200A20EE090A84ED080AFDF7BC
:1026E000BFFDA671D9E54078A52800D1A5630A9859
:1026F000A16B3A4608440E491431FDF798FDA06BD2
:1027000045F6C0513844A0638842EBD30949C9F863
:1027100000100220AAF800000A98002100905E2311
:1027200080220846FFF7F2FAA563B6E518EF00200D
:102730009CCF002000000240124A10B511680B68BF
:1027400023F040030B6010490B684FF6C774234019
:102750000B600B6803430B60086820F00200086000
:10276000086840F002000860086820F00100086076
:10277000086840F0010008601068016841F04001FD
:10278000016010BD180100200030014009490968AE
:102790008A68D2439207FBD4074AD0608868C04356
:1027A0000006FBD58868C043C007FBD1D068C0B223
:1027B0007047000018010020003001407047FEF70C
:1027C00055B9000030B593B030216846FDF748FD9B
:1027D00014210CA8FDF744FD1D480025016841F0B7
:1027E00080510160006800F0805011901948016824
:1027F00021F4404141F4004101600068022400F4EA
:102800004040119001200090000401908001CDE92A
:10281000064019200890A820CDE9090404200B9057
:102820006846FEF7ABFA08B172B6FEE70CA90F20B6
:1028300081E831004FF48050CDE90F0502210CA84A
:10284000FEF7B0F9002801D072B6FEE713B030BD34
:1028500040380240007000400548016841F47001B2
:10286000016003494FF00060803908607047000044
:1028700088ED00E0F0B502681D4B1E4C9F031E4D15
:102880001E4E984207D0B84205D0A04203D0A842BD
:1028900001D0B04204D122F0700C4A6842EA0C0226
:1028A000984210D0B8420ED0A0420CD0A8420AD014
:1028B000B04208D0124CA04205D0124CA04202D027
:1028C000114CA04203D122F44074CA6822434C69DF
:1028D00022F08002224302608A68C2620A68826231
:1028E000984201D10969016301214161F0BD0000F5
:1028F000000001400004004000080040000C0040BF
:1029000000400140004401400048014030B5026AE7
:1029100022F001020262026A4368846924F07305AE
:102920000C682C4322F002058A682A430A4DA8420B
:102930000BD122F00805CA6823F440732A434D697D
:1029400022F004021D438B692B4343608461496874
:102950004163026230BD00000000014030B5026AF0
:1029600022F010020262026A436884690D6824F44E
:10297000E64444EA05248D6822F0200242EA05126A
:102980000B4DA8420ED1CD6822F0800242EA05121A
:102990004D6923F4406343EA85038D6922F04002C8
:1029A00043EA85034360846149688163026230BD04
:1029B0000000014030B5026A22F480720262036AAC
:1029C0004268C46923F4007324F073050C682C4337
:1029D0008D6843EA05230C4DA8420ED1CD6823F43F
:1029E000006343EA05234D6922F4405242EA05128E
:1029F0008D6923F4806342EA05124260C46149682C
:102A0000C163036230BD00000000014030B5026ABE
:102A100022F480520262046A4268C3690D6823F49A
:102A2000E64343EA05238D6824F4005444EA053460
:102A3000064DA84204D14D6922F4804242EA851233
:102A40004260C36149680164046230BD0000014016
:102A5000F8B506460D46012000F0C8FB41F6583295
:102A600090B122280FD114460092AAB20A4B3146E7
:102A7000012001F075FA084BAAB21B1D3146012056
:102A8000009401F06DFAF8BD01B00023BDE8F040FC
:102A90000221012001F032BBBC00002070B50446C9
:102AA00000680169E26821F4405111430161216924
:102AB000A068E26908436169114308432168CA6854
:102AC00049F20C639A430243CA6020684169A269D3
:102AD00021F440711143416131492068884202D09C
:102AE0003049884202D1FEF707F901E0FEF7F4F819
:102AF000E2690023192164253226B2F5004F62688D
:102B000028D0A0FB0101930F9200FDF75FFB014667
:102B1000B0FBF5F06FF01802504301EB800006EBBC
:102B20000010B0FBF5F000F0F002B1FBF5F002EBA5
:102B30000012B1FBF5F06FF01803584301EB800071
:102B400006EB0010B0FBF5F000F00F002168104418
:102B5000886070BDA0FB010192185B41FDF736FB58
:102B60000146B0FBF5F00201B1FBF5F06FF0180380
:102B7000584301EB800006EBC000B0FBF5F000F01D
:102B8000F80002EB4002B1FBF5F0584301EB800086
:102B900006EBC000B0FBF5F000F00700D6E7000040
:102BA0000010014000140140FEE700000FB4054B87
:102BB00010B503A9044A029800F070F910BC5DF842
:102BC00014FB000055310008CC0000204100080231
:102BD00018BF04200A0E18BF40F001004FF07F42DA
:102BE00032EA010108BF40F00200012808BF0520B9
:102BF00070470907090E002804DB00F1E02080F887
:102C00000014704700F00F0000F1E02080F8141D60
:102C10007047000010EE100A10B510EE901A4FF039
:102C2000684202EB40032DED028BB3F1654F3CBFD0
:102C300002EB4102B2F1654F7CD200BFC0F3C75333
:102C4000C1F3C7529A1A1B2A09DD10F0004F14BFB6
:102C50009FED6E0A9FED6E0ABDEC028B10BD12F166
:102C60001A0F1BDA11F0004F09D010F0004F0CBF03
:102C70009FED680A9FED680ABDEC028B10BD80EEE7
:102C8000208A18EE100AFFF7A1FF042808BF00F001
:102C9000EDF8B0EE480ABDEC028B10BD4200B2EB7D
:102CA000410F37D910F0004F19BFDFED5C1A9FEDCF
:102CB0005C1ADFED5C1A9FED5C1AB0EE602A0A46E2
:102CC000F1EE400A80F00041B0EE420A10460A1AC6
:102CD0005200B2F1807F34D2484010F0004FDFED57
:102CE000532A9FED533A1DBFBEEE002A71EEE21A41
:102CF00031EE431AB6EE002A04BF71EEA21A31EE8D
:102D0000031AF0EE402A42EE602A40EE020A82EEFA
:102D1000A02A18E011F0004F04BF9FED461AF0EE14
:102D2000411AD4D010F0004F1CBFDFED431A9FEDC5
:102D3000431A00E026E004BFDFED411A9FED411A7F
:102D4000C5E780EE202A22EE020ADFED3F0ADFED22
:102D50003F2ABDEC028B40EE202ADFED3D0A40EE1B
:102D6000220ADFED3C2A40EE202ADFED3B0A40EE4E
:102D7000220A22EE000A00EE201A31EE020A30EE9C
:102D8000210A10BD4FF07F42B2EB400F28BFB2EBDB
:102D9000410F05D2BDEC028BBDE8104000F062B8D7
:102DA00040EA01035B0008BF41F0FF410BD0B2EBEA
:102DB000400F08BFB2EB410F08D120F0804000EE79
:102DC000100A21F0804100EE901A37E7B2EB400F75
:102DD00012BF5FEA410240F0FF4001F000413FF4C2
:102DE0002DAF4A0092EA40033FF528AF002AACBF5E
:102DF0009FED1A1A9FED1A1A20EE010A60EE810A61
:102E000010EE100A10EE901A18E70000DB0FC9BF91
:102E1000DB0FC93FDB0F4940DB0F49C00000C9BFD2
:102E200022AAFDB90000C93F22AAFD390060ED3E8B
:102E3000C30ACE3700000000000049C022AA7DBAB4
:102E40000000494022AA7D3A2DAD65BD8FB8D53D21
:102E50000FB511BE61C84C3EA8AAAABE0000804FA3
:102E60000000802F30EE200A704700009FED020A1C
:102E700020EE000A704700000000001002E008C8C1
:102E8000121F08C1002AFAD170477047002001E0E4
:102E900001C1121F002AFBD1704700002DE9FF4F2E
:102EA00089B09B460446002506E025280BD05A46EB
:102EB0000B999047641C6D1C20780028F5D10DB04B
:102EC0002846BDE8F08F0027B8460122474900E0B8
:102ED000074314F8013F203B02FA03F00842F7D100
:102EE00020782E2819D114F8010F47F004072A285A
:102EF0000ED06FF02F022078A0F1300109290CD8F4
:102F000008EB880102EB410100EB0108641CF2E7C9
:102F10000A98641C50F8048B0A9020780028CED0C0
:102F2000642808D0692806D075281ED05A460B9907
:102F300090476D1C58E00A994FF00A0901C90A919F
:102F4000002802DA40422D2102E0390504D52B2168
:102F50008DF82010012103E0F90704D02021F7E7C4
:102F60008A4608AE0DE00021FAE70A994FF00A09F7
:102F700001C90A91F7E74946FDF77DF9303106F8B6
:102F8000011D0028F7D1ADEB060000F120097807FC
:102F900001D44FF00108C84502DDA8EB090000E0AC
:102FA00000208046002706E008A85A46C05D0B991D
:102FB00090476D1C7F1C5745F6DB04E030205A46D5
:102FC0000B9990476D1CB8F10001A8F10108F5DCE0
:102FD00005E016F8010B5A460B9990476D1CB9F1A4
:102FE0000001A9F10109F4DC641C65E7092801006E
:102FF00038B501F017FA0020FFF79EFB1849174873
:103000000860184912200880FEF726FC0020A02343
:10301000802201460090FEF7E7FB6420FDF70EFCDE
:103020001149124800F001F9114C012220212046DB
:10303000FDF711FD012211032046FDF70CFD642070
:10304000FDF7FCFB00F02EFF01F04CF801F016F844
:10305000BDE838400749084801F09AB8000002402E
:103060001800002014000020C132000814CF0020F6
:103070000004024030000020280000201D4D1E4E9C
:10308000DFF878801E4CDFF87CB012274FF4FA7915
:103090004FF4005A3560A8F800701B4800F0CDF8D6
:1030A0001A491B48FFF790F8FDF7DAFC6168401AEF
:1030B000322805D3FDF7D4FC6060134800F0C5F852
:1030C000FDF7CEFCA168401A0A2804D3FDF7C8FC1E
:1030D000A060FDF7EDF9FDF7C3FC2168401A4845F3
:1030E000D8D3FDF7BDFC206051465846FDF7ABFC38
:1030F000D0E700000000024018000020140000206B
:10310000580000200008024014CF002084690020ED
:10311000F403002070B505464FF4847000EB4510B1
:1031200004461021FEF7C9FA2046FEF7AAFA002845
:10313000FAD14FF4027000EB4510BDE87040FF215A
:10314000FEF7BBBA03E04F21491E09B2FCD2401E74
:10315000F9D2704738B504468DF80000694603205F
:10316000ABBE204638BD04220146900101F076B97D
:10317000014931F810007047B803002001460422CD
:103180004FF4706001F06AB9014604224FF4A06068
:1031900001F064B94FF4027101EB4010FEF771BA0F
:1031A0002DE9F04142F2086101EB401542F208714D
:1031B000002601EB40142846FEF763FA0746204636
:1031C000FEF75FFA00EB072007043F0C09D0284602
:1031D000FEF757FA06462046FEF753FA00EB0620A4
:1031E00086B2BE42E7D13046BDE8F0814FF442716D
:1031F00001EB4010FEF745BAFDF740FCFFF7E2FA9D
:10320000FEF750FEFEF728FEFEF7A2FFFEF70CFFCA
:10321000FEF7BAFFFEF7EEFDFEF74AFFFEF728FFC6
:10322000FFF7E6FEFFF72AFFFCE7002904D0016064
:103230000121017180F85A1070470179012903D1E9
:10324000002101710068004770470121017170473A
:1032500090F8581000290BD0491EC9B280F85810B8
:1032600000EB8101896801600121017180F85A1029
:103270007047000070B50022002914D090F8583033
:10328000142B10D205688D420DD001240EE000BF32
:1032900000EB8206B6688E4206D180F858200160A5
:1032A000047180F85A4070BD521CD2B29342EFD8DC
:1032B00000EB83025B1C80F858309560EFE700005C
:1032C0002DE9F04F00202DED028B83B0FFF734FA8B
:1032D000FE480C25002490F85A10FD4E002969D0B4
:1032E00080F85A40A0238022702100200094FEF72D
:1032F0007BFA4FF4FC67CDE900453B46F5A264211B
:1033000006200294FEF718FDCDE900453B46F2A2E7
:10331000642146200294FEF70FFDCDE900453B46AF
:10332000EEA2702106200294FEF706FDCDE90045CD
:103330003B46ECA2702146200294FEF7FDFCCDE94D
:1033400000453B46E9A27C2106200294FEF7F4FCEE
:10335000CDE900453B46E7A27C2146200294FEF7DA
:10336000EBFCCDE900453B46E4A28821062002940F
:10337000FEF7E2FCCDE900453B46E2A2882146206B
:103380000294FEF7D9FCCDE900453B46DFA294212B
:1033900006200294FEF7D0FCCDE900453B46DCA2B6
:1033A000942146200294FEF7C7FCFDF7A7F870624F
:1033B000B062F471FDF7A2F8C5497062B146C978F0
:1033C0009FEDD58ADFF854B3D54F70264FF4784877
:1033D0004FF6FF7A00296FD0FDF784F8002865D0FA
:1033E00089F80040FDF73CFBC9F81800CD480A21D8
:1033F0000470CD488BF800400470CC480470CC4871
:103400000470CC480470CC4887ED008A80ED008AB7
:10341000CA4880ED008ACA4804600471C948FCF7B4
:103420001FFF0A21C848FCF71BFFFDF719FBD9F85D
:1034300018100223411A4FF47A70B1FBF0F002B277
:1034400099F90700009400EBD070401000EB4000A9
:1034500006EB800081B22A20CDE90145FEF7FBFB97
:103460009B4803210B30FFF7F3FA0C20FDF7E6F938
:10347000974803210B30FFF7EBFA89F8034099F9DD
:103480000700CDF80080C1077ED000BF00EBD070F0
:10349000401000EB40007C2101EB80018BB206EB79
:1034A000800081B246224020FEF79EF999F8000084
:1034B00001286AD0B8E1FFE7D9F82810884239D04E
:1034C00099F80710484602DDA1F1010101E001F180
:1034D0000101C17149B2072900DD0721C17100292D
:1034E00000DA002189F80710A023062270210020AD
:1034F0000094FEF779F9A023462270214020009421
:10350000FEF772F999F90700CDF80080C10700EBCA
:10351000D0704FEA600000EB40004FF07C0101EBFF
:1035200080018BB206EB800081B260D04622402041
:10353000FEF75AF9D9F82410C9F82810FCF7D2FF81
:103540000028B3D099F90710062953D0072967D06E
:10355000012189F80010FDF783FAC9F818007148B5
:10356000047071488BF80040047070480470704813
:10357000047070480470704887ED008A80ED008AFE
:103580006E4880ED008A01E022E053E06C480A2199
:10359000046004716B48FCF763FE0A216A48FCF77B
:1035A0005FFE4B4803210830FFF752FA0C20FDF76D
:1035B00045F9474803210830FFF74AFA012089F806
:1035C000030099F90700CDF800A0C1077FF45EAFB2
:1035D00000EBD070401000EB40007C2101EB80013B
:1035E0008BB206EB800081B2062200205CE7062247
:1035F00000209DE7364803211130FFF729FA0C20FF
:10360000FDF71CF9324803211130FFF721FA03B00E
:103610004E492E48BDEC028BBDE8F04FFFF72ABEA5
:1036200003B02B480321BDEC028B0E30BDE8F04FF8
:10363000FFF70EBA3B48007810B39BF80010F9B1C1
:1036400039490A78E2B1374A214814708BF80040B2
:103650000C7003210B30FFF7FBF90C20FDF7EEF89F
:103660001B4803210B30FFF7F3F9A6E001230422E6
:1036700031487EE0012189F8011089F80040D7E047
:10368000FDF7EEF9D9F81810401A46F66051884255
:1036900078D30F4803210B30FFF7DAF90C20FDF740
:1036A000CDF80B4803210B30FFF7D2F91D48007805
:1036B00050B10128DED19BF8000018B11A480078FB
:1036C0000028D7D1574643E05DE0000014CF00202A
:1036D00064000020413A00004C3A00006B5F6C6DC2
:1036E000696E00006B5F6C6D617800006B5F61302C
:1036F000000000006B5F6139000000006B5F61310A
:10370000000000006B5F6134000000004F53430075
:1037100042494E3A000000000000000095000020E1
:103720009C000020940000209600002090000020C3
:103730009200002093000020AC000020B000002088
:103740009CCF0020F0EE002018EF00200539000883
:103750006448CDF800A0CDE9014590ED000A0123B1
:10376000042264215220FEF7FFF9009701235E48EE
:103770000422CDE9014590ED000A64215220FEF7B4
:10378000F3F977E72DE09BF80000012803D05748B4
:1037900000780128F5D15648017856480078081A73
:1037A00040B2022802DB9FED540A04E010F1020F40
:1037B00003DCB1EE040A87ED000ACDF800A0CDE9E4
:1037C00001450123042297ED000A64211220FEF72F
:1037D000CBF94A493868CDF800A088423FF746AF98
:1037E000C4E799F807004F46C0074FF6E07A5ED06D
:1037F000FDF736F9B9690223411A4FF47A70B1FB2B
:10380000F0F002B297F90700CDF800A000EBD070FD
:10381000401000EB400006EB800081B26A2000BF40
:10382000CDE90145FEF717FA99F80100012839D1D1
:10383000FDF716F9D9F81C104D46401ADFF8C09074
:103840004FF48047C82809D3FDF70AF9E8613946E3
:103850004846FDF7F8F82879401C28712879062891
:1038600020D12C71012239464846FDF7F4F86C70DE
:10387000EC7095F90700CDF80080C10700EBD0701F
:103880004FEA600000EB40004FF07C0101EB80014B
:103890008BB206EB800081B221D046225FF040005F
:1038A000FDF7A2FF03B0BDEC028BBDE8F08FFDF782
:1038B000D7F8B9690223411A4FF47A70B1FBF0F0DE
:1038C00002B297F90700CDF800A000EBD0704010CD
:1038D00000EB400006EB800081B22A20A0E7062220
:1038E0000020DDE7AC000020B000002096000020A2
:1038F00092000020930000200000AA420000344201
:10390000000402402DE9F04100202DED028B82B031
:10391000FEF712FF8349844E0220088096F85A0071
:103920009FED828A824C4FF00008F0B1002145469D
:10393000A02380220846CDF80080FDF755FF86F8C9
:103940005A5001253020CDE9000580237022002146
:1039500006F15C0000F002F9DFED760AB0EE480AED
:1039600006F15C0000F0C6F9A570216A724D481C92
:1039700020626D482A885C3000F034F96F483221AB
:103980004B2300881922A03806B228884FF6FF750D
:10399000643807B208460095FDF7CCFE32236E224C
:1039A000194618460095FDF7C5FE3222052311463B
:1039B00010460095FDF7BEFE41231E224B21192023
:1039C0000095FDF7B7FE4B232322194619200095D9
:1039D000FDF7B0FE2C23642232216E200095FDF706
:1039E000A9FE3823642232216E200095FDF7A2FE45
:1039F0000F232C22052132200095FDF79BFE0F237B
:103A00003822052132200095FDF794FECDF8008084
:103A1000A3796279981E81B2901E454680B2921CAD
:103A20009B1CFDF7E1FE0095A37962790521322008
:103A3000FDF780FE00EE907AB8EEE00A00EE906AA4
:103A4000F8EEE00A9FED3E1AF0EE481A00EEC10AC9
:103A5000DFED3C0A40EE201ABCEEE10AFBEE041A50
:103A600010EE100A00EE106AC2B2B8EEC00A62711F
:103A700040EE411AB0EE480A9FED331A01EEA00A5B
:103A8000BCEEC00A10EE100A00EE106AC3B2B8EE27
:103A9000C00AA37120EE010A00EE208ABCEEC80A1B
:103AA00010EE100AC6B24FF478400090981E81B212
:103AB000901E80B2921C9B1CFDF796FE4FF6E070A4
:103AC0000090A379627905213220FDF733FE4FF68D
:103AD00007400090701E627981B2501E80B2731C44
:103AE000521CFDF781FEFCF7FDFC002815D01048A4
:103AF00003211430FEF7ACFF0C20FCF79FFE0C48AE
:103B000003211430FEF7A4FFA57002B00648BDECF7
:103B1000028BBDE8F041FFF79BBB02B0BDEC028B0E
:103B2000BDE8F0811400002014CF002000004842BE
:103B30006400002000001643980000209A00002036
:103B4000F4FD343F9A99193FF4FD34BF0246012039
:103B500000E05043491EC9B2FBD270472DE9F8433B
:103B60000C4615469E1EDDE9081286808E1EC68014
:103B7000661C06806E1C4680002646610661491E52
:103B8000066229441FFA81F8C6619FED150AA0F864
:103B90000E8080ED060A5B1E80F82420E7184FF6A1
:103BA000FF762B46BAB2194620460096FDF7C2FDB5
:103BB0004346BAB2194620460096FDF7BBFD2246A1
:103BC0004346294610460096FDF7B4FDBAB2B8B296
:103BD000434629460096FDF7ADFDBDE8F883000099
:103BE00000000000F8B504468088B1FBF0F300FB4C
:103BF00013102188084480B22081618988421CD238
:103C00002569E561636962612362226194F8246039
:103C10009EB9EB1A00EE103AE388F8EEC00A00EE07
:103C2000103AB8EE401A81EE200A9FED301AF0EEFD
:103C3000400A40EE410AC4ED060A6369934200DD82
:103C400062612369934200DA2261E9B3D4ED060A86
:103C5000F5EEC00AF1EE10FA43DD94F8241009B92C
:103C6000216AA1626188E38800EE101ADFED201A54
:103C7000A56AB8EE401A00EE103A521BB8EE400AA0
:103C800000EE211A00EE102AB8EEC00A00EE601A0B
:103C9000BCEEC10A10EE102A92B2A2818A4200D272
:103CA000A181CA18A3899A4200D2A281002300935D
:103CB00093B2421C92B2FDF797FD22896589AA4210
:103CC0000FD9E089A18900E00BE04FF4FC63884242
:103CD000009302D80B46014600E003462846FDF754
:103CE00029FD20896081A089E081F8BDCDCC4C3EC2
:103CF0006666663FC18870EEC01A01EE101ABDEE0E
:103D0000C00AB8EE411AC1EE210ADFED051AB0EE85
:103D1000601A00EEE11A80ED061A80ED0A0A70477B
:103D2000CDCC4C3E2DE9FF4F83B00024DDF840A000
:103D30001D460646002A7BD042F6080000EB4610DE
:103D40008146FDF79EFC074642F6081000EB461040
:103D50008046FDF796FC00EB072087B2380200EBA7
:103D6000461000F1180B082000EB4610FDF789FC07
:103D700000F00700022804D0032824D004284ED1E4
:103D800060E008226946584600F068FB9DF8000094
:103D900028709DF8010068709DF80200A8709DF8D9
:103DA0000300E8709DF80400AAF800009DF80510D3
:103DB000083701EB0020AAF80000BFB29DF806000A
:103DC0009DF8071016E006226946584600F046FBAB
:103DD0009DF8000028709DF8010068709DF80200B1
:103DE000A8709DF80300E870BF1D9DF804009DF8C1
:103DF0000510BFB201EB002084B2380200EB461080
:103E000022461830049900F029FB381985B2290A96
:103E10004846FDF752FCE9B24046FDF74EFC4FF430
:103E2000847000EB461005464021FDF746FC00E09B
:103E300004E02846FDF725FC0028F8D107B020460D
:103E4000BDE8F08F02226946584600F007FB9DF856
:103E500000009DF801106FF0010202EB0020084401
:103E6000BF1C84B240F2EA50BDB2844203D907A01D
:103E7000FEF79CFEFEE7280200EB461022461830B3
:103E8000049900F0EBFA2819C0E70000646174613E
:103E90005F6C656E206F76657220313531340D0AA6
:103EA0000000000070B50B4D4FF4805400222146F5
:103EB0002846FCF7D0FD6420FFF744F90122214693
:103EC0002846FCF7C8FDBDE870404FF4C860FCF719
:103ED000B5BC0000000402402DE9F0475FEA02088B
:103EE0008946044626D042F2084000EB441630468C
:103EF000FDF7C7FB074642F2085000EB4415284681
:103F0000FDF7BFFB00EB072087B2380200EB44103F
:103F100042464946103000F0C5FA07EB080084B26B
:103F2000210A3046FDF7C9FBE1B22846BDE8F0475B
:103F3000FDF7C3BB2146BDE8F04701A0FEF736BE42
:103F400043483A20256420556E6578706563746532
:103F50006431206C656E67746820300D0A000000C3
:103F60002DE9F0411D46164688460446069FFFF798
:103F7000FFF8B04203D22046FFF7FAF80646297848
:103F800029B9687818B9A87808B9E878F0B3EFB318
:103F900040F6084000EB4410FDF78FFB40F6085058
:103FA000697800EB4410FDF788FB40F60860A978BB
:103FB00000EB4410FDF781FB40F60870E97800EB58
:103FC0004410FDF77AFB41F20800390A00EB441077
:103FD000FDF773FB41F20810F9B200EB4410FDF756
:103FE0006CFB324641462046FFF776FF4FF4847063
:103FF00000EB441005462021FDF75FFB2846FDF746
:1040000040FB0028FAD14FF4027000E012E000EB10
:1040100044142046FDF735FBC00620460CD4FDF7BE
:1040200030FB0007F5D520461821FDF746FB0020A0
:10403000BDE8F081002602E01021FDF73EFB30468E
:10404000F6E704220146900100F02CBA0146062250
:104050004FF4106000F026BA014604224FF470605D
:1040600000F020BA014604224FF4A06000F01ABA12
:104070004FF4027202EB4010FDF71FBB10B5184859
:10408000164C01692160818AA1800168C4F806107C
:104090004168C4F80A108168C4F80E10C068C4F8FA
:1040A00012000120A0760020E07604F10A00FFF75C
:1040B000D9FF04F10E00FFF7C4FFA01DFFF7CCFFEE
:1040C0000748FFF75BF80648001DFFF75DF8044856
:1040D000BDE810400830FFF746B80000D8030020C4
:1040E00038000020044903480A690260898A8180F7
:1040F000FFF7ACBFD8030020380000202DE9F041C5
:10410000054601F00F001F4616460C4601280AD04E
:10411000022808D0032806D0042804D0052802D09D
:104120000020BDE8F0812846FEF7F4FF082044EAAD
:10413000070100EB4510FDF7C0FA4FF481604FF422
:10414000A16100EB451001EB451426B1310AFDF7E2
:10415000B4FAF1B208E00D4E3188491C89B23180C1
:10416000090AFDF7AAFA31782046FDF7A6FA4FF4BE
:10417000847000EB451004460121FDF79EFA2046AD
:10418000FDF77FFA0028FAD10120CAE74E0000208F
:104190002DE9F05F0026DFF878A08846074635460F
:1041A00034464FF6FF790AF1100B41F60870395D7D
:1041B00000EB4410FDF781FA41F6086018F804108E
:1041C00000EB4410FDF779FA00222AF814202BF8AE
:1041D00014204FF4804250465946964205DC17F8A9
:1041E00004C009EA8C2320F81430954205DC18F845
:1041F000043009EA832221F814203AF81400064416
:104200003BF81400641C0544082CCEDBBDE8F09F8D
:10421000B80300202DE9F041364C374D0E460746D5
:10422000002221882868FCF716FC344801680A68D7
:1042300022F001020A6001680A68D207F7D1026819
:104240002F4991600168CF6001680A6822F400621A
:104250000A6001680A6822F400520A6001680A686C
:1042600042F480620A6001684E6001680A6842F0A8
:1042700001020A6000680168224ECA07224F234BE0
:10428000234917D0DFF87CE0AEF1540EAEF1040CF8
:10429000B04202D9DEF8002009E0B84202D9DCF8C9
:1042A000002004E0984201D94A6800E00A6812F44C
:1042B000006FEDD04FF40062B04202D911484C3883
:1042C00003E0B84203D90F485038026004E0984236
:1042D00001D9CA6000E08A600E4800688168C9435D
:1042E0000906FBD521882868BDE8F0410122FCF7CA
:1042F000B2BB00001400002018000020C8010020FC
:104300000C30014058640240B860024058600240DE
:1043100000600240180100202DE9F041374C384D73
:104320000E460746002221882868FCF794FB354892
:1043300001680A6822F001020A6001680A68D2076F
:10434000F7D10268304991600168CF6001680A685E
:1043500042F400620A6001680A6842F400520A608E
:1043600001680A6822F480620A6001684E60274A88
:104370000121117001680A6842F001020A600068B8
:104380000168234ECA07234F234B244917D0DFF877
:1043900080E0AEF1540EAEF1040CB04202D9DEF86A
:1043A000002009E0B84202D9DCF8002004E098427D
:1043B00001D94A6800E00A6812F4006FEDD04FF4AA
:1043C0000062B04202D912484C3803E0B84203D927
:1043D0000F485038026004E0984201D9CA6000E0FA
:1043E0008A600F4800688168C9430906FBD52188A7
:1043F0002868BDE8F0410122FCF72DBB1400002025
:1044000018000020C80100200C30014010000020DE
:1044100058640240B86002405860024000600240A8
:1044200018010020054801680A6842F040020A604D
:104430000068416841F002014160704718010020A6
:10444000054B30B1012806D1012220211846FCF786
:1044500002BB0022F9E77047000402402DE9F04159
:104460000546002416460F462046FFF7E9FFC5F330
:104470000740FEF78BF9C5F30720FEF787F905F033
:10448000F800FEF783F905E00020FDF714F9385530
:10449000641CA4B2B442F7D30120FFF7D1FF304629
:1044A000BDE8F0812DE9F0410546002416460F468F
:1044B0002046FFF7C5FFC5F30740FEF767F9C5F3D0
:1044C0000720FEF763F905F0F800001DC0B2FEF703
:1044D0005DF904E0385DFEF759F9641CA4B2B442FA
:1044E000F8D30120FFF7ACFF3046BDE8F0810006AD
:1044F0001016000610160000000000000000010267
:10450000030406070809000000000102030400007C
:10451000000000000000000000000000040404048B
:1045200004000004000014140A0000000000000051
:10453000000000000A0A1F0A0A1F0A0A00000004FD
:104540000E1505060C14150E0400000012150D15AD
:104550002E2C2A1200000000040A0A36151529160E
:10456000000002020100000000000000000010082E
:1045700008040404040408081000020404080808DD
:1045800008080404020000000004150E0E150400C3
:10459000000000000008083E0808000000000000BD
:1045A0000000000000000202010000000000003FC7
:1045B00000000000000000000000000000000002F9
:1045C000000000201010080804040202010000008E
:1045D0000E1111111111110E000000000406040447
:1045E0000404040E000000000E1111080402011F53
:1045F000000000000E11100C1010110E0000000041
:10460000080C0C0A091F081C000000001F01010F04
:104610001110110E000000000C12010D1311110EEB
:10462000000000001E10080804040404000000003C
:104630000E11110E1111110E000000000E111119B2
:10464000161009060000000000000400000000042D
:10465000000000000000000400000004040000004E
:1046600010080402020408100000000000003F00CF
:104670003F000000000000000204081010080402BF
:10468000000000000E1111080404000400000000E6
:104690001C22292D2D1D221C0000000004040C0AE0
:1046A0000A1E1233000000000F12120E1212120F17
:1046B000000000001E1101010101110E00000000A8
:1046C0000F1212121212120F000000001F120A0E17
:1046D0000A02121F000000001F120A0E0A0202073F
:1046E000000000001C1201013911120C0000000032
:1046F0003312121E12121233000000001F040404B1
:104700000404041F000000003E0808080808080808
:104710000907000037120A060A12123700000000CB
:10472000070202020202223F000000003B1B1B1B8B
:1047300015151535000000003B1216161A1A12172F
:10474000000000000E1111111111110E00000000E7
:104750000F12120E02020207000000000E111111CA
:104760001117190E180000000F12120E0A1212373C
:10477000000000001E1101060810110F00000000CB
:104780001F1504040404040E00000000331212126A
:104790001212120C000000003312120A0A0C040458
:1047A00000000000151515150E0A0A0A0000000089
:1047B0001B0A0A04040A0A1B000000001B0A0A0A5A
:1047C0000404040E000000001F0908040402121F64
:1047D00000001C0404040404040404041C0000027B
:1047E000020404040808081010000E08080808084D
:1047F000080808080E00040A00000000000000007D
:10480000000000000000000000000000003F020463
:104810000000000000000000000000000000000C8C
:10482000121C123C000000030202020E1212120EB1
:10483000000000000000001C1202120C0000001812
:104840001010101C1212123C000000000000000C9E
:10485000121E021C000000182404041E0404041E7E
:10486000000000000000003C120C021C221C00038F
:104870000202020E121212370000000404000006A9
:104880000404040E000000080800000C08080808D2
:10489000080700030202021A0A060A1300000007B2
:1048A000040404040404041F000000000000000FBE
:1048B00015151515000000000000000F1212123728
:1048C000000000000000000C1212120C000000009A
:1048D0000000000F1212120E020700000000001C60
:1048E0001212121C103800000000001B0602020702
:1048F000000000000000001E020C101E000000005E
:104900000004041E0404041C000000000000001B3E
:104910001212123C000000000000001B0A0A0404EE
:104920000000000000000015150E0A0A000000003B
:104930000000001B0A040A1B0000000000000033F6
:1049400012120C08040300000000001E0804041EDC
:10495000000018080808080C0808080818000808CB
:1049600008080808080808080808060404040408D9
:104970000404040406001609000000000000000002
:104980000000000000000000000000000000000027
:1049900000000000000808080808080800001818AF
:1049A000000000486C24120000000000000000001D
:1049B00000000000002424247F1212127F12121221
:1049C00000000000081C2A2A0A0C1828282A2A1C81
:1049D000080800000022251515152A5854545422A1
:1049E00000000000000C1212120A76252911916EA7
:1049F00000000006060403000000000000000000A4
:104A000000000040201010080808080808101020B6
:104A100040000002040808101010101010080804CC
:104A200002000000000008086B1C1C6B0808000056
:104A3000000000000000080808087F0808080800B7
:104A4000000000000000000000000000000006065A
:104A500004030000000000000000FE000000000051
:104A6000000000000000000000000000000006063A
:104A700000000000804040202010100808040402BC
:104A800002000000001824424242424242422418DE
:104A90000000000000080E08080808080808083E82
:104AA00000000000003C4242422020100804427EE8
:104AB00000000000003C4242201820404042221CDE
:104AC0000000000000203028242422227E202078AC
:104AD00000000000007E0202021A26404042221C12
:104AE0000000000000382402021A26424242241824
:104AF00000000000007E22221010080808080808A4
:104B000000000000003C4242422418244242423C41
:104B10000000000000182442424264584040241C17
:104B20000000000000000000181800000000181825
:104B30000000000000000000000800000000000865
:104B4000080400000040201008040204081020405F
:104B500000000000000000007F0000007F00000057
:104B60000000000000020408102040201008040289
:104B700000000000003C424246402010100018187F
:104B800000000000001C225A555555552D42221C8C
:104B900000000000000808181414243C224242E7D8
:104BA00000000000001F2222221E22424242221F39
:104BB00000000000007C4242010101010142221C70
:104BC00000000000001F2242424242424242221F95
:104BD00000000000003F4212121E12120242423F29
:104BE00000000000003F4212121E121202020207D1
:104BF00000000000003C2222010101712122221C40
:104C00000000000000E7424242427E42424242E748
:104C100000000000003E0808080808080808083ED0
:104C200000000000007C1010101010101010101068
:104C3000110F0000007722120A0E0A1212222277A8
:104C40000000000000070202020202020202427F8C
:104C5000000000000077363636362A2A2A2A2A6BC8
:104C60000000000000E346464A4A52525262624740
:104C700000000000001C2241414141414141221CF1
:104C800000000000003F424242423E020202020790
:104C900000000000001C2241414141414D53321CA3
:104CA00060000000003F4242423E1212222242C7F0
:104CB00000000000007C4242020418204042423EB4
:104CC00000000000007F4908080808080808081CC0
:104CD0000000000000E74242424242424242423C5F
:104CE0000000000000E7424222242414141808089F
:104CF00000000000006B49494949555536222222DF
:104D00000000000000E7422424181818242442E779
:104D10000000000000772222141408080808081C6C
:104D200000000000007E2120101008040442423FD1
:104D3000000000780808080808080808080808089B
:104D40007800000002020404080808101020202047
:104D50004040001E101010101010101010101010F5
:104D60001E000038440000000000000000000000A9
:104D70000000000000000000000000000000000033
:104D800000FF000608000000000000000000000016
:104D90000000000000000000003C4278444242FC59
:104DA0000000000000030202021A26424242261AB4
:104DB00000000000000000000038440202024438F5
:104DC000000000000060404040784442424264D805
:104DD0000000000000000000003C427E0202423C55
:104DE0000000000000F08808087E08080808083E57
:104DF0000000000000000000007C22221C023C4257
:104E0000423C000000030202023A4642424242E7AC
:104E100000000000000C0C00000E08080808083E06
:104E2000000000000030300000382020202020202A
:104E3000221E0000000302020272120A16122277DA
:104E400000000000000E0808080808080808083ECE
:104E50000000000000000000007F9292929292B742
:104E60000000000000000000003B4642424242E7D2
:104E70000000000000000000003C42424242423C70
:104E80000000000000000000001B26424242221EDB
:104E900002070000000000000078444242424478CB
:104EA00040E000000000000000774C040404041FF0
:104EB0000000000000000000007C42023C40423E36
:104EC0000000000000000008083E0808080808303C
:104ED000000000000000000000634242424262DC29
:104EE000000000000000000000E74224241408082D
:104EF000000000000000000000EB49495555222247
:104F00000000000000000000007624181818246E2D
:104F1000000000000000000000E7422424141808EC
:104F20000807000000000000007E22100808447EF0
:104F3000000000C020202020201020202020202041
:104F4000C0001010101010101010101010101010C1
:104F500010100006080808080810080808080808C3
:104F600006000C32C200000000000000000000003B
:104F70000000000000000000000000000000000031
:104F80000000000000000000000000000000000021
:104F90000000000000000000000000000000000011
:104FA00000000000000000000000600060006000E1
:104FB00060006000600060004000200020002000D1
:104FC00000000000000060006000600000000000C1
:104FD00000000000000060066006300398018800B1
:104FE000440000000000000000000000000000007D
:104FF00000000000000000000000000000000000B1
:10500000000000000000000000001002100210026A
:105010001002FE07FE070802080108010801080146
:10502000FE07FE0704010401040104010000000062
:10503000000000000000000040004000F0015803A4
:105040004C03CC034C0058007000E000C001C001CC
:1050500040034C035C034C034801F0004000400057
:10506000000000000000000000000E010A01910095
:1050700091009100510051003A00AE03A00250048B
:1050800050044804480448048402840300000000DB
:105090000000000000000000000038006C006C0000
:1050A0006C006C006C002C0098071C011A01330185
:1050B00033016301E300C308C6093C070000000098
:1050C0000000000000000C001C0010001000080090
:1050D00004000000000000000000000000000000CC
:1050E00000000000000000000000000000000000C0
:1050F00000000000000000040002000180008000A9
:10510000400040002000200020002000200020005F
:1051100020004000400080008000000100020004E8
:105120000000000000000200040008001000100051
:1051300020002000400040004000400040004000AF
:1051400040002000200010001000080004000200B1
:10515000000000000000000000000000000040000F
:10516000C0004000460C4E0FD001F0015E0F460C0F
:10517000400040004000000000000000000000006F
:10518000000000000000000000000000000000001F
:1051900040004000400040004000FE0F4000400042
:1051A000400040004000000000000000000000003F
:1051B00000000000000000000000000000000000EF
:1051C00000000000000000000000000000000000DF
:1051D0000000000000000C001C001000100008007F
:1051E00004000000000000000000000000000000BB
:1051F00000000000000000000000FE0700000000AA
:10520000000000000000000000000000000000009E
:10521000000000000000000000000000000000008E
:10522000000000000000000000000000000000007E
:105230000000000000001C001C001C00000000001A
:10524000000000000000000400060002000300014E
:10525000000180008000400040006000200020002D
:1052600010001000080008000C00040006000200F6
:10527000000000000000000000000000F0009801A5
:105280000C030C03060606060606060606060606B8
:10529000060606060C030C039801F000000000004F
:1052A00000000000000000000000000040007C0042
:1052B00060006000600060006000600060006000EE
:1052C00060006000600060006000FC0300000000FF
:1052D000000000000000000000000000F800840151
:1052E000020306030603000300018001C000600002
:1052F00020001000080204020602FE030000000065
:105300000000000000000000000000007800C6005F
:105310008601860180018001C000700080010001CB
:1053200000030003060306038601F80000000000E6
:10533000000000000000000000000000800180016B
:10534000C001A001A00190018801880184018201AF
:10535000FE0F8001800180018001E0070000000055
:10536000000000000000000000000000FC0304003A
:105370000400040004000400F4008C010403000392
:1053800000030603060382018401F8000000000008
:10539000000000000000000000000000E001180311
:1053A0000C030C0004000600E60116030E060606B8
:1053B0000606060604060C021803F00000000000B2
:1053C000000000000000000000000000F8070C06CC
:1053D0000402040100010001800080004000400040
:1053E000400060006000600060006000000000009D
:1053F000000000000000000000000000F8010C03A5
:105400000606060606060C021C03F000C8010C0383
:1054100006060606060606060C03F001000000005C
:10542000000000000000000000000000F0000C017F
:105430000C03060206060606060606078C06780614
:105440000006000300030C018C017800000000003E
:10545000000000000000000000000000000000004C
:10546000000000000000E000E000E000000000009C
:10547000000000000000E000E000E000000000008C
:10548000000000000000000000000000000000001C
:10549000000000000000600060000000000000004C
:1054A00000000000000000006000600040002000DC
:1054B00020000000000000000000000400020001C5
:1054C00080004000200010000800040008001000C8
:1054D00020004000800000010002000400000000E5
:1054E00000000000000000000000000000000000BC
:1054F000000000000000FE07000000000000FE07A2
:10550000000000000000000000000000000000009B
:10551000000000000000000000000400080010006F
:105520002000400080000001000200040002000191
:10553000800040002000100008000400000000006F
:10554000000000000000000000000000E00318065A
:10555000040C040C0C0C0C0C0007800140004000F3
:10556000400000000000E000E000E000000000005B
:1055700000000000000000000000E00018030C0222
:10558000CC0564056605A605B604B604B604B604E3
:10559000B602E4010C040C021803F0000000000045
:1055A000000000000000000000000000600060003B
:1055B0005000D00090009000880088010801F80198
:1055C000040304030402020202060F0F000000009D
:1055D000000000000000000000000000FE008C033E
:1055E0000C030C030C030C038C01FC000C030C02D9
:1055F0000C060C060C060C060C03FE010000000055
:10560000000000000000000000000000E00318039C
:105610000C060C0404040600060006000600060042
:10562000060006040C040C021803F0000000000041
:105630000000000000000000000000007F008C015E
:105640000C030C030C060C060C060C060C060C06D0
:105650000C060C060C030C038C017F0000000000FC
:10566000000000000000000000000000FF0306032F
:1056700006040604060086008600FE0086008600FA
:1056800086000600060406040602FF030000000070
:10569000000000000000000000000000FF030603FF
:1056A00006040604060086008600FE0086008600CA
:1056B000860006000600060006001F00000000002D
:1056C000000000000000000000000000F0001801D1
:1056D0000C020C0204020600060006000600C60FBB
:1056E000060306030C030C031803F000000000007F
:1056F0000000000000000000000000000F0F060680
:1057000006060606060606060606FE070606060640
:10571000060606060606060606060F0F000000002F
:10572000000000000000000000000000FC0360001A
:105730006000600060006000600060006000600069
:1057400060006000600060006000FC03000000007A
:10575000000000000000000000000000F807C0008A
:10576000C000C000C000C000C000C000C000C00039
:10577000C000C000C000C000C000C000C60066007D
:105780003C0000000000000000000000CF03860184
:10579000C60046002600160036002E006E004600A9
:1057A000C60086008601060106038F070000000080
:1057B0000000000000000000000000001F000600C4
:1057C00006000600060006000600060006000600A9
:1057D00006000600060406040602FF03000000009F
:1057E0000000000000000000000000000707860322
:1057F00086038E038E034E034E034A035A035A0355
:105800003A03320332033203120387070000000019
:105810000000000000000000000000008E0F0C02DD
:105820001C021C0234023402640264024402C402F8
:10583000840284038403040304031F0200000000A5
:10584000000000000000000000000000F0009801CF
:105850000C030C02060606060606060606060606E3
:10586000060606060C020C039801F000000000007A
:10587000000000000000000000000000FF00060320
:10588000060606060606060606068603FE0006004F
:10589000060006000600060006001F0000000000CB
:1058A000000000000000000000000000F00098016F
:1058B0000C030C0206060606060606060606060683
:1058C000060676064C02CC039801F0008007000320
:1058D000000000000000000000000000FF010603BF
:1058E00006060606060606060603FE004600C60075
:1058F000860086010603060306060F0E0000000060
:10590000000000000000000000000000F8020C038E
:105910000602060206000E003C00F800E0038003C9
:1059200000070206020606060C03F0010000000054
:10593000000000000000000000000000FE076204FC
:105940006108610860006000600060006000600045
:1059500060006000600060006000F801000000006E
:105960000000000000000000000000001E070C0204
:105970000C020C020C020C020C020C020C020C02B7
:105980000C020C020C020C021801F00000000000D6
:105990000000000000000000000000000F070602E9
:1059A000040104010C010C01880088009800980093
:1059B0005000500070003000200020000000000067
:1059C000000000000000000000000000F70E62046C
:1059D00042044604460464026402E402E4029C02B7
:1059E0009C0198019801880188008800000000004F
:1059F0000000000000000000000000009E070C01F5
:105A0000080118019000B0006000200060006000F4
:105A1000D00090008801080104038E0700000000F8
:105A20000000000000000000000000000F0F06044E
:105A300004020C0208011801B800B00070006000F8
:105A400060006000600060006000F801000000007D
:105A5000000000000000000000000000FC070C0235
:105A60000603020180018000400040002000200069
:105A70001000180008040C040402FE0300000000DB
:105A8000000000000000E0032000200020002000B3
:105A90002000200020002000200020002000200006
:105AA0002000200020002000200020002000E00333
:105AB00000000000000000000000040004000800D6
:105AC00008001000100010002000200040004000DE
:105AD000C0008000800000010001000200020002FE
