:020000040800F2
:10000000F8D50020A90100088B2B0008EF2000087C
:10001000892B00083D0900080D350008000000008C
:10002000000000000000000000000000812F000818
:10003000BD09000800000000492D0008832F0008BA
:10004000C3010008C3010008C3010008C301000880
:10005000C3010008C3010008C3010008C301000870
:10006000C3010008190A0008C3010008C301000801
:10007000C3010008C3010008C3010008C301000850
:10008000C3010008C3010008C3010008000000000C
:10009000000000000000000000000000C301000894
:1000A000C3010008C3010008C3010008C301000820
:1000B000C3010008C3010008C3010008C301000810
:1000C000C3010008C3010008C3010008C301000800
:1000D000752E0008DD3300087134000800000000B0
:1000E000C3010008C3010008C301000800000000AC
:1000F000000000000000000000000000C301000834
:1001000000000000C3010008C3010008C30100088B
:1001100000000000000000000000000000000000DF
:10012000C3010008C3010008C3010008C30100089F
:10013000C3010008000000000000000000000000F3
:10014000000000000000000000000000C3010008E3
:10015000C3010008C3010008C3010008C30100086F
:10016000C3010008C30100080000000000000000F7
:10017000000000000000000000000000000000007F
:1001800000000000C30100080000000000000000A3
:10019000C3010008DFF80CD000F018FB004800474E
:1001A0000D440008F8D5002006488047064800475F
:1001B000FEE7FEE7FEE7FEE7FEE7FEE7FEE7FEE717
:1001C000FEE7FEE725300008950100082DE9F05F05
:1001D0000546002092469B468846064681464024B6
:1001E0001BE0284641464746224600F001F95346A7
:1001F0005A46C01A914110D311461846224600F0C3
:10020000E8F82D1A67EB01084F462246012000212D
:1002100000F0DFF817EB00094E41201EA4F10104A5
:10022000DFDC484631462A464346BDE8F09F40EAB7
:1002300001039B0703D009E008C9121F08C0042A64
:10024000FAD203E011F8013B00F8013B521EF9D24B
:100250007047D2B201E000F8012B491EFBD2704773
:100260000022F6E710B513460A4604461946FFF782
:10027000F0FF204610BD2DE9F04D81EA030404F0A3
:10028000004B21F0004514464FF0000A23F00041D6
:1002900050EA050220D054EA01021DD0C5F30A57E6
:1002A0000246C5F31303C1F31300C1F30A5640F429
:1002B000801543F48013A7EB0608101BD64608F2FE
:1002C000FD3873EB050002D308F1010801E0921834
:1002D0005B41B8F1000F03DA00200146BDE8F08D64
:1002E00000204FF48011064684460EE0171B73EB86
:1002F000050705D3121B63EB050306434CEA010C0B
:1003000049084FEA300092185B4150EA0107EDD1ED
:1003100052EA030012D082EA040083EA050108438E
:1003200005D0101BAB4106D20122002306E00022BB
:100330004FF0004302E06FF0010253101AEB060089
:100340004CEB085110EB0A0041EB0B01BDE8F04DFE
:1003500000F095B80EB540F2334102910021CDE98D
:1003600000110A460B4600F099F803B000BD01F0F9
:10037000004330B421F0004150EA010206D00A0DDA
:10038000A2F56072C1F31301002A02DC30BC002028
:100390007047440F44EAC104C100E01830BC00EBD0
:1003A000C25000F035B830B50B460146002020227F
:1003B000012409E021FA02F59D4205D303FA02F572
:1003C000491B04FA02F52844151EA2F10102F1DCD2
:1003D00030BD202A04DB203A00FA02F100207047E9
:1003E0009140C2F1200320FA03F319439040704773
:1003F000202A04DB203A21FA02F00021704721FA7A
:1004000002F3D040C2F120029140084319467047E0
:100410000029A8BF7047401C490008BF20F0010018
:10042000704710B4B0FA80FC00FA0CF050EA0104F6
:1004300004BF10BC704749B1CCF1200421FA04F488
:1004400011FA0CF118BF012121430843A3EB0C0161
:10045000CB1D4FEA00614FEA102042BF002010BCC4
:10046000704700EBC35010440029A4BF10BC704774
:10047000401C490008BF20F0010010BC704710B5B7
:10048000141E73F1000408DA401C41F100019218B7
:100490005B411A4301D120F0010010BD2DE9F04D60
:1004A00092469B4611B1B1FA81F202E0B0FA80F2B5
:1004B00020329046FFF78DFF04460F4640EA0A00BF
:1004C00041EA0B0153465A46084313D0114653EAFA
:1004D000010019D0C8F140025046FFF789FF0546D8
:1004E0000E46504659464246FFF773FF084305D073
:1004F000012004E020463946BDE8F08D0020054388
:1005000046EAE0762C4337430A986305E40AA0EBF9
:1005100008000022FD0A44EA47540A3002D50020B0
:100520000146E9E7010510196941DDE908450019AF
:100530006941BDE8F04DA2E72DE9FE4F804681EA12
:100540000300C00F0C46009021F0004123F000454D
:10055000B8EB0200A94105D24046214690461C4610
:100560000B46024623F00040104347D0270DC7F347
:100570000A00C3F30A510290401A019040286BDA36
:10058000C3F3130040F4801B0098924620B100236F
:10059000D2EB030A63EB0B0B01985946C0F1400202
:1005A0005046FFF716FF06460D4650465946019A3B
:1005B00000F01EF910EB08006141002487EA115297
:1005C00084EAE7731A4340D0009A62B3019A012A81
:1005D0004FEA075215DC001B61EB02014FF00042AD
:1005E00002EA0752CDE90042001C41F58011324673
:1005F0002B46FFF753FF03B0BDE8F08F404621467E
:10060000F9E7001B61EB0201001C41F580130018A3
:100610005B412018A2F5001747EB030140EAD570B3
:10062000B6196D4111E06D084FEA360645EAC0750E
:100630004FEA0752001B61EB0201001C41F58011DB
:1006400049084FEA30000019514132462B4603B0A9
:10065000BDE8F04FFFF713BF0098012240000023D0
:10066000D0EB020263EBE073009821464FEAE0749E
:10067000B8EB000061EB0401E9E783F000435BE7BE
:1006800081F0004158E72DE9FE4F81EA030404F0B0
:10069000004421F0004100944FF0000B23F0004390
:1006A00050EA01045ED052EA03045BD0C3F30A545B
:1006B000C1F30A552C44A4F2F3340194A0FB025474
:1006C000C1F3130141F48011C3F3130343F4801306
:1006D00001FB024400FB034E840A970A44EA81545A
:1006E00047EA8357A4FB076802958D0A05FB078537
:1006F0004FEA932C04FB0C542705029D4FEA065841
:1007000047EA1637B5EB08056EEB070C870E920E1D
:1007100047EA811742EA8312A7FB0201B6EB0B01FD
:1007200064EB00042B0D43EA0C335E1844EB1C50C1
:10073000DA465146E7FB0201C5F313044FEA0B33D7
:1007400043EA14534FEA0432019C43EA0603A4F13E
:100750000C040294009CCDE900B4FFF79FFE03B0A7
:10076000BDE8F08F00200146F9E7C1F30A52C1F35A
:10077000130140F2FF3341F480119A4202DA002063
:100780000146704740F233439A42A2F2334202DC00
:100790005242FFF72DBEFFF71CBE000030B5041E0D
:1007A00071F1000404DB4FF00044404264EB0101AE
:1007B000141E73F1000405DB1C464FF00043524247
:1007C00063EB0403994208BF904230BD064C074DCD
:1007D00006E0E06840F0010394E807009847103411
:1007E000AC42F6D3FFF7DAFC088E0008288E00082A
:1007F000202A06DBCB17203A41FA02F043EAE073E5
:1008000006E041FA02F3D040C2F1200291400843D1
:1008100019467047464910B54A6822F440324A608A
:100820004A6843681A434A6001684A6822F4807241
:100830004A6001684A68036942EA03224A60016823
:100840004A6822F040724A6001684A6883681A4325
:100850004A6001688A6822F400628A6001688A68D6
:10086000C3681A438A60816A6FF07062D14201687E
:100870008A6822F070628A6001688A680CD0836A94
:100880001A438A6001688A6822F040528A600168CF
:100890008A68C36A1A4301E022F040528A60016804
:1008A0008A6822F002028A6001688A68037E42EA4E
:1008B00043028A6090F82010002901684A680FD02E
:1008C00042F400624A6001684A6822F460424A6069
:1008D00001684A68174C436A04EB43331A4301E04A
:1008E00022F400624A600168CA6A22F47002CA6295
:1008F0000168CA6A838B104C04EB03531A43CA6223
:1009000001688A6822F400728A6001688A6890F837
:10091000303042EA43228A6001688A6822F48062A9
:100920008A6001688A68406942EA8020886010BD58
:100930000023014000E0FFFF0000F0FFFEE70000A1
:1009400001681823CAB2103AB2FBF3F2054B6FF3F9
:100950000901032A9B5CC36500D9091D816508460E
:1009600070470000CA54000810B5014600208B698A
:100970008A6A4FF0C07453B1B3F5005F15D072B1FD
:10098000012A0CD0022A0AD0032A09D104E01AB1A4
:10099000012A06D0022A03D1C96AC90100D5012063
:1009A00010BDC96AA142FAD010BD002AF7D0012AB1
:1009B000F2D0022AF3D0032AF3D010BD7047000012
:1009C00070B50A4D1021284600F0B6FC084C08B955
:1009D000207840B11021284600F0AEFC012801D15A
:1009E0000020207070BD01206070FAE70004024012
:1009F000300000200448417819B1002141700120E5
:100A00007047002070470000300000200148406817
:100A1000704700003000002070B5134801680907D6
:100A200020D50821016000F099FC104CA168401A03
:100A3000052817D300F092FCA168401AC821B1FB29
:100A4000F0F505B901254FF40041094800F074FCA8
:100A50000028606801D0284400E0401B606000F07E
:100A60007DFCA06070BD0000143C014030000020FF
:100A70000000024072B6FEE7002229B101291AD017
:100A800002291BD04FF440720E490B6823F44073C7
:100A90000B600B6813430B600A6822F0F8020A60CF
:100AA0000A68022303EBC00002430A60086840F4AE
:100AB0008030086070474FF48072E5E74FF40072B1
:100AC000E2E70000103C02401348016889050FD599
:100AD000016821F400710160016841F40061016066
:100AE000016821F400610160016841F40071016056
:100AF000016849050FD5016821F480610160016832
:100B000041F480510160016821F480510160016865
:100B100041F4806101607047003C024008490A6866
:100B200022F440720A600A6842F004020A600A680D
:100B30004FF4803343EA002002430A60704700000C
:100B4000103C0240064A136823F440731360136894
:100B50001360136843F001031360017070470000D5
:100B6000103C0240094910B50C6824F440740C6034
:100B70000C6844F440740C600C6844F001040C6090
:100B80000260BFF36F8F436010BD0000103C024055
:100B9000074A136823F440731360136843F48073A7
:100BA0001360136843F00103136001807047000075
:100BB000103C0240074A136823F440731360136823
:100BC00043F400731360136843F001031360016082
:100BD00070470000103C02401C490868C2061C48CF
:100BE00005D5C26942F01002C26110220A600A688B
:100BF000920605D5C26942F00802C26120220A604D
:100C00000A68520605D5C26942F00402C261402258
:100C10000A600A68120605D5C26942F00202C26182
:100C200080220A600A68D20506D5C26942F0010234
:100C3000C2614FF480720A600A68920705D5C269E2
:100C400042F02002C2610220086070470C3C024062
:100C5000D004002070B5114904460020C86100F09E
:100C60007DFB06460E4D09E0601C07D024B100F064
:100C700075FB801BA04201D9032070BD2868C0030A
:100C8000F2D42868C00701D001202860286810F439
:100C9000F970F2D0FFF7A0FF012070BDD004002052
:100CA0000C3C024070B5154C002621462069CD68E9
:100CB00000B3281AFFF74EFB9FED111B53EC112BCD
:100CC000FFF7D9FAFFF753FB00EE100ADFED0E0A2B
:100CD00084ED060A0D4960EE200A20EE800A10EE2F
:100CE000100A84ED050A0844B0F1CA7F02D884EDE9
:100CF000070A01263046256170BD0000A4000020CF
:100D0000000000000000594024287E3E000060BE24
:100D100078B50024009490F83C20012A19D00122D3
:100D200080F83C200A6807230568092A13D9EE6871
:100D30000A3A02EB420293409E43EE600B788A68C7
:100D40000A3B03EB43039A400368DD682A43DA60F9
:100D500010E0022078BD2E6902EB420293409E43D0
:100D60002E610B788A6803EB43039A4003681D6980
:100D70002A431A614A681F23072A13D205686E6B3B
:100D8000521E02EB820293409E436E630B790A88E7
:100D90005B1E92B203EB83039A4003685D6B2A43A8
:100DA0005A6327E005680D2A12D22E6BD21F02EB80
:100DB000820293409E432E630B790A88DB1F92B216
:100DC00003EB83039A4003681D6B2A431A6311E007
:100DD000EE6A0D3A02EB820293409E43EE620B797B
:100DE0000A880D3B92B203EB83039A400368DD6AE5
:100DF0002A43DA62164B0568144A9D4206D10D68F3
:100E0000122D03D1556845F48005556005689D4253
:100E100018D10B68102B01D0112B13D1536843F458
:100E200000035360096810290CD10A490A4A09686D
:100E3000B1FBF2F101EB8101490000E0491E009194
:100E40000029FBD180F83C40002078BD0023014000
:100E5000002001400C00002040420F0070B504004B
:100E60004FF0000503D0206C002610B107E00120F0
:100E700070BD204600F01CF8666484F83C60206C6D
:100E8000C00610D4206C20F4885040F0020020648A
:100E90002046FFF7BFFC6664206C20F0020040F0A3
:100EA0000100206400E0012584F83C60284670BD04
:100EB00010B586B0044614216846FFF7D1F91149F0
:100EC000206888421BD110480021026842F48072D9
:100ED0000260006800F4807005900B4814380268C6
:100EE00042F001020260006800F00100059003205A
:100EF0000090CDE901016946044800F02FF906B0E1
:100F000010BD0000002001404438024000000240B3
:100F10002DE9F041044600F021FA06465CB10025B7
:100F200084F83450022084F835002068016821F0EC
:100F3000010101600DE00120BDE8F08100F00EFA32
:100F4000801B052805D920206065032084F8350022
:100F5000F2E720680068C007F0D1226811682048D5
:100F60000140D4E901031843D4E90336334318435D
:100F700063691843A3691843E3691843236A184354
:100F80000843616A042903D1D4E90B1319430843C8
:100F9000106020684069666A20F0070130460E4301
:100FA000012704280CD1A06A0643E06A40B120461C
:100FB000FFF7DAFC20B14020606584F83570BAE7AD
:100FC000206846612046FFF7BBFC94F85C203F2177
:100FD00091408160656584F835700020ACE70000C1
:100FE0003F8010F070B5044600F0B8F90546601C6B
:100FF00002D004480078044400F0B0F9401BA0423D
:10100000FAD370BD000000202DE9F04704462248C5
:101010000F46017E01290AD00121804601764CF25B
:1010200050394846FFF716FE020003D02FE0022099
:10103000BDE8F0874FF0FF3038602068174D012879
:1010400001D0A6681CE0207C6168FFF767FD484678
:10105000FFF700FE0246286820F00400286014E034
:10106000217C3046FFF708FD4846FFF7F3FD0200FC
:10107000286820F0FA00286001D03E6005E0761C68
:10108000D4E902100844B042EAD8FFF71DFD002160
:1010900088F818101046CBE7D0040020103C02401E
:1010A0000348016841F000410160002070470000E2
:1010B000103C02402DE9F0471B4E05461446307E99
:1010C0001F468946012808D0012030764CF250385E
:1010D0004046FFF7BFFD18B114E00220BDE8F087DD
:1010E0009DB1012D16D0022D19D022463B4648460F
:1010F000FFF738FD4046FFF7ADFD0C490A6822F0C6
:1011000001020A6000213176E8E7E1B24846FFF7C4
:1011100019FDEFE7A1B24846FFF73AFDEAE721469D
:101120004846FFF747FDE5E7D0040020103C0240A9
:10113000074900200A68002A09DA054A054B0C3ADB
:101140001360054B13600968002900DA012070471D
:10115000103C024023016745AB89EFCD2DE9F84FE4
:10116000DFF8B4A1002201240AF1040B03254FF09B
:101170000F090BF1040E00BF0B6804FA02F63340AE
:10118000B34272D10F7907F00307012F01D0022F6C
:1011900016D187684FEA420805FA08FC27EA0C07CF
:1011A000D1F80CC00CFA08FC4CEA070CC0F808C0D7
:1011B0004768B7430E79C6F3001696403E43466033
:1011C0000E79F643B6070DD0C768560005FA06FC3F
:1011D00027EA0C07D1F808C00CFA06FC4CEA070C09
:1011E000C0F80CC00E7906F00306022E10D1D60806
:1011F00000EB8608D8F8206057074FEAD76C09FA49
:101200000CF7BE430F6907FA0CF73743C8F8207094
:1012100006684FEA420C05FA0CF7BE430F7907F057
:10122000030707FA0CF7374307604E68F6006DD5E1
:101230003A4E376847F480473760366822F0030734
:1012400006F480460096364E07EB060CDCF808687C
:1012500097073F0F09FA07F826EA0806DFF8C48067
:10126000404503D14FF000081EE04FE0DFF8B880A2
:10127000404502D14FF0010816E0DFF8B08040454C
:1012800002D14FF002080FE0DFF8A480404502D100
:101290004FF0030808E0DFF89C80404502D14FF092
:1012A000040801E04FF0070808FA07F848EA0608C2
:1012B000CCF80888DAF800605746D1F804C09E439D
:1012C0005FEACC3C00D51E433E60DBF800605F4621
:1012D000D1F804C09E435FEA8C3C00D51E433E60BB
:1012E000DEF800607746D1F804C09E435FEACC2C5C
:1012F00000D51E433E60084F0C373E68D1F804C04D
:101300009E435FEA8C2C00D51E433E60521C102A7F
:10131000FFF432AFBDE8F88F003C01404438024092
:10132000003001400000024000040240000802407A
:10133000000C0240001002400069084000D001206B
:101340007047426921EA02030A4043EA024181618F
:1013500070470AB1816170470904FBE70148806862
:1013600070470000000000200248816802781144A4
:1013700081607047000000200B4810B5016841F4FF
:1013800000710160016841F480610160016841F40D
:1013900080710160032000F071F8002000F006F871
:1013A00000F024F8002010BD003C024070B50D4D47
:1013B00004464FF47A712878B1FBF0F00A490968C5
:1013C000B1FBF0F000F0E6FB48B9102C07D2002288
:1013D0002146501E00F032F800206C6070BD0120E4
:1013E00070BD0000000000200C0000200B4882B0FF
:1013F000016841F480410160006800F48040009081
:101400000648001F016841F080510160006800F04B
:1014100080500090052002B000F030B844380240FF
:10142000002809DB00F01F020121914040098000E3
:1014300000F1E020C0F8001170470000F0B40E4B3E
:101440001B680C46C3F30223C3F10705042D00D922
:101450000425191D072901D2002300E0DB1E012607
:1014600006FA05F1491E214099409E40761E16401D
:101470003143F0BC02F05CB80CED00E0064900F02E
:10148000070208684FF6FF03184040EA0220034AAB
:1014900010430860704700000CED00E00000FA0502
:1014A0002DE9F0470E46050065D0DFF81481D8F825
:1014B0000000F7B200F00700B04207D288F80070D1
:1014C000D8F8000000F00700B04254D128683D4C25
:1014D000810712D5400703D5206840F4E050206012
:1014E0002878000703D5206840F460402060206819
:1014F000A96820F0F000084320602878C0072DD0AC
:10150000304968680839012812D0022813D003280E
:1015100011D00968890700292DDA216821F003011B
:1015200001432160FFF71AFF814641F2883A0EE03D
:1015300009688903EFE709688901ECE7FFF70EFF07
:10154000A0EB0901514502D90320BDE8F0872068CE
:10155000696800F00C00B0EB810FEFD1D8F80010F3
:10156000404601F00701B14207D90770006800F05A
:101570000700B04201D00120E7E72878400705D5F1
:101580002068E96820F4E0500843206028780007CC
:1015900006D52068296920F4604040EAC100206037
:1015A00000F038F82168084AC1F30311515CC840C3
:1015B0000649086006480068FFF7F8FE0020C4E707
:1015C000003C024008380240D25400080C000020C1
:1015D000040000200448054900680968044AC1F372
:1015E0008221515CC84070470C000020083802403E
:1015F000E25400080448054900680968044AC1F338
:101600004231515CC84070470C000020083802404D
:10161000E2540008154810B5006810F00C02144898
:1016200013D01449042A0FD0082A0ED10F4C241FBE
:101630002268236802F03F025B0207D52068C0F3EE
:101640008810A0FB010106E0084610BD2168C1F327
:101650008811A1FB00010023FEF7B8FD2168C1F34A
:101660000141491C4900B0FBF1F010BD08380240AF
:101670000024F40040787D012DE9F84F04006ED07D
:101680002078DFF84C93C007A9F104054AD009F18E
:1016900004000168C1F38101012908D00068C0F38A
:1016A000810002280AD1D9F80000400206D5286836
:1016B000800337D560680028E1D033E06068B0F57A
:1016C000803F10D0B0F5A02F286810D020F48030D3
:1016D0002860286820F4802028606068A8B1FFF79F
:1016E0003DFE06460DE0286840F48030F4E740F403
:1016F00080202860F7E700BFFFF730FE801B6428DA
:1017000073D828688003F7D50CE0FFF727FE06465C
:1017100005E000BFFFF722FE801B6428F0D8286890
:101720008003F7D42078DFF8AC8280074FF0000AFE
:101730003ED5A748001D016811F00C0F08D00068C5
:10174000C0F3810002280BD1D9F80000400207D471
:101750002868800716D5E068012800D112E033E13F
:10176000E068B8B10120C8F80000FFF7F7FD0646B1
:1017700005E000BFFFF7F2FD801B0228C0D82868F3
:101780008007F7D52868216920F0F80040EAC100F9
:1017900028600DE0C8F800A0FFF7E0FD064604E071
:1017A000FFF7DCFD801B02281FD828688007F7D4CC
:1017B0002078000722D5864F87486169703771B15C
:1017C00001210160FFF7CAFD064604E0FFF7C6FDF0
:1017D000801B022809D838688007F7D50EE0C0F8CA
:1017E00000A0FFF7BBFD064605E082E0FFF7B6FD6F
:1017F000801B02287DD838688007F7D420784007FE
:1018000068D5DFF8CCB100270BF13C0BDBF800000A
:10181000C0000BD4DBF8001041F08051CBF8001071
:10182000DBF80000012700F0805000906B4E30681C
:10183000C00510D4306840F480703060FFF78EFD32
:10184000009005E0FFF78AFD0099401A022850D861
:101850003068C005F6D55E4EA0686C3601280FD002
:101860000528306810D020F001003060306820F08A
:1018700004003060A068B8B1FFF770FD00900FE081
:10188000306840F00100F4E740F004003060F7E712
:10189000FFF764FD0099411A41F28830814266D811
:1018A00030688007F4D50EE0FFF758FD009007E0A0
:1018B000FFF754FD0099411A41F28830814256D811
:1018C00030688007F4D42FB1DBF8001021F080518C
:1018D000CBF80010A069C8B33D49091D0968C1F3E0
:1018E000810102294AD00228504607D0C8F860007A
:1018F00000E03CE0FFF732FD04463BE04746C8F815
:101900006000FFF72BFD064605E000BFFFF726FD50
:10191000801B02282BD828688001F7D4D4E907015E
:101920000843A16A2E4A490802EB0141626A41EA72
:101930008211084394F82C1040EA0161C9F80010A4
:1019400001203866FFF70AFD044606E03EE000BFCE
:10195000FFF704FD001B022809D828688001F7D58D
:1019600034E000BFFFF7FAFC001B022802D9032075
:10197000BDE8F88F28688001F4D427E00128F7D06B
:10198000D9F80000E26900F4800191421CD1226A7A
:1019900000F03F01914217D147F6C071626A0140E1
:1019A000B1EB821F10D1A26A4FF0FF3300F4403137
:1019B00003EB5202B1EB024F06D194F82C1000F069
:1019C0007060B0EB016F01D00120D1E70020CFE7BC
:1019D0000438024000004742800E47420070004039
:1019E0000000FFFF70B5040009D0606A002540B117
:1019F00025616561A56294F8510040B10CE00120B9
:101A000070BD6068B0F5827FF4D0E561F2E784F8DC
:101A10005050204600F044F8022084F8510020681D
:101A2000016821F040010160A088218900F48270E2
:101A300001F404410843A18901F400610843217CB9
:101A400001F002010843217D01F001010843218BCF
:101A500001F400710843217F01F03801084394F834
:101A6000201001F080010843218D01F4005108434A
:101A700021680860A069042101EA104094F824104C
:101A800001F010010843216848602068C16921F411
:101A90000061C1616565012084F85100002070BDBE
:101AA000F0B587B0064614216846FEF7D9FB324FE1
:101AB000306800253149022203230524B84233D17E
:101AC0002E481430076847F480570760006800F418
:101AD00080500590086840F0010008600868694679
:101AE00000F001000590E0208DE82500CDE90334E9
:101AF0002348FFF733FB244C224820604FF0C0609E
:101B000060604020C4E9020525616561A561E56169
:101B1000256220466562FFF7FBF908B1FEF7AAFFD0
:101B2000B464A66307B0F0BD184EB042FAD11348B2
:101B30001030066846F480460660006800F4804075
:101B40000590086840F0020008600868694600F0E7
:101B5000020005904FF420408DE82500CDE90334C4
:101B60000B48FFF7FBFA002211462420FFF766FC22
:101B70002420FFF755FCD5E7003001403038024003
:101B80000000024088640240DC0100200038004070
:101B90000004024010B5401EB0F1807F01D3012047
:101BA00010BD4FF0E02460610F21601701F0C0FC10
:101BB0000020A06107202061002010BD70B590F8C2
:101BC0003C20012A2CD0012480F83C40022280F8DD
:101BD0003D2003685A689D6822F070060A68324307
:101BE0005A60104B02689A420ED0B2F1804F0BD06F
:101BF0000D4B9A4208D00D4B9A4205D00C4B9A429D
:101C000002D00C4B9A4204D1496825F08003194355
:101C1000916080F83D40002180F83C10084670BD7E
:101C2000022070BD00000140000400400008004098
:101C3000000C00400040014010B586B0044614215D
:101C40006846FEF70DFB0E492068884215D10D4805
:101C50000021026842F002020260006800F0020007
:101C600005904FF4707000900220CDE90101CDE99C
:101C7000031069460448FFF771FA06B010BD000072
:101C800000080040303802400004024070B50446AD
:101C900090F83C000D4601280AD0012084F83C0051
:101CA00042B1042A18D0082A2AD00C2A4DD139E092
:101CB000022070BD206801F00FFA2068816941F0B0
:101CC000080181612068816921F004018161206837
:101CD00081692A69114311E0206801F025FA206822
:101CE000816941F4006181612068816921F480612A
:101CF0008161206881692A6941EA0221816124E0C9
:101D0000206801F03DFA2068C16941F00801C16115
:101D10002068C16921F00401C1612068C1692A6994
:101D2000114311E0206801F057FA2068C16941F4BD
:101D30000061C1612068C16921F48061C1612068CE
:101D4000C1692A6941EA0221C161002084F83C008E
:101D500070BD10B5040003D094F83D0010B107E049
:101D6000012010BD002084F83C00204600F01EF841
:101D7000022084F83D00211D206801F061F9012056
:101D800084F8460084F83E0084F83F0084F8400060
:101D900084F8410084F8420084F8430084F8440049
:101DA00084F8450084F83D00002010BD08B50068A7
:101DB0000B49884212D10B48016841F004010160CF
:101DC0000068002200F00400009011461E20FFF77A
:101DD00035FBBDE808401E20FFF722BB08BD000010
:101DE000000800404038024070B5040004D094F868
:101DF0003D00002510B106E0012070BD84F83C5084
:101E0000204600F023F8242084F83D002068C168B3
:101E100021F40051C160204601F028FA20680169D0
:101E200021F4904101612068416921F02A0141615A
:101E30002068C16841F40051C1602564202084F805
:101E40003D0084F83E00002070BD00002DE9F04FF9
:101E500087B0044614216846FEF702FA6F48DFF89F
:101E6000B881D4F800C06D4F143802210322072630
:101E70006B4B00254FF0400B4FF000694FF4806A28
:101E8000C4454CD1D7F800C04CF0100CC7F800C0C6
:101E90003F6807F010070597076847F001070760DC
:101EA000006800F00100059050028DE82300CDE9A4
:101EB000032669461846FFF751F95B4E59484F46CD
:101EC000C6E9035A7561B561F5613562756286E8E8
:101ED0008108D0463046FFF71BF808B1FEF7CAFD6F
:101EE0006663B463504E4F48603678383060C6E958
:101EF0000175C6E903587561B561F5613562304613
:101F00007562FFF705F808B1FEF7B4FDA66300227D
:101F100011462520B463FFF791FA252051E0DFF840
:101F20000C81C44552D13D4F3F1FD7F800C04CF43F
:101F3000003CC7F800C03F6807F400370597076802
:101F400047F001070760006800F0010005900C20D1
:101F50008DE82300CDE9032669461846FFF7FEF811
:101F6000314E3348C0364F463060C6E90195C6E968
:101F7000035A7561B561F5613562D04630467562C8
:101F8000FEF7C6FF08B1FEF775FDA663B463294EE0
:101F90002748C6E903587561B561F56135621830A7
:101FA000756286E881083046FEF7B2FF08B1FEF799
:101FB00061FD6663002211462620B463FFF73EFAF6
:101FC0002620FFF72DFA07B0BDE8F08F1A4CA44584
:101FD000F9D13C6844F020043C603C6804F02004E3
:101FE0000594046844F001040460006800F00100F6
:101FF00005904FF4C0508DE823000820CDE9032060
:1020000069461846FFF7AAF8002211464720FFF755
:1020100015FA4720D5E7000000100140443802407F
:1020200000000240B8640240500300200044004019
:102030008860024070040020001401402DE9F8433C
:10204000044690F83D001F4616460D4620284CD108
:10205000C5B1BEB194F83C00012846D0012084F8F7
:102060003C004FF00008C4F84080212084F83D0077
:10207000FFF774F9A6848146E684A068B0F5805F16
:1020800003D004E00120BDE8F883206928B12E4682
:102090005FF0000584F83C800EE00026FAE780211E
:1020A000204601F069F9A0B9AEB116F8010B21681C
:1020B0004860E08C401EE084E08C4B464FF000020C
:1020C00000970028EBD14FF04001204601F054F971
:1020D00030B10320D7E735F8020BC0F30800E6E77C
:1020E000202084F83D000020CDE70220CBE7FEE76A
:1020F00010B50446002003F091F9C4F3074000F046
:1021000027FFC4F3072000F023FF04F0F80000F0DD
:102110001FFF002000F006F80446012003F07EF9BE
:10212000204610BD00F014BF70B504460D460020D7
:1021300003F074F9C4F3074000F00AFFC4F307206A
:1021400000F006FF04F0F800001DC0B200F000FF30
:10215000284600F0FDFEBDE87040012003F05EB9A6
:102160002DE9F04107461C4615460E462A2000F090
:10217000A5FA7F1CB8B200F097FA6D1CA8B200F067
:1021800093FA2B2000F09AFA1A36B0B200F08CFACB
:102190001A34A0B200F088FABDE8F0412C2000F01B
:1021A0008DBA10B514460B460246FFF7D9FF2046FC
:1021B000BDE8104000F078BA70B5184D049C2C8032
:1021C000141A5D1A6C435B1E521EA5B29BB292B2EA
:1021D000FFF7C6FF124E3068016821F04001016030
:1021E000104C206840F4006020603068016841F0C5
:1021F000400101602946094802F0EEFF2068C04313
:102200002060206840F4006020602068C0432060A7
:102210003068016841F04001016070BD1600002087
:102220002C0100200030014010B5182000F0F8FD0E
:10223000924C002201212046FFF78BF86420FEF724
:10224000D1FE012211462046FFF783F86420FEF7F5
:10225000C9FE012202212046FFF77BF86420FEF729
:10226000C1FE112000F02AFA7820FEF7BBFEB12053
:1022700000F024FA052000F035FA3C2000F032FA94
:102280003C2000F02FFAB22000F018FA052000F0F0
:1022900029FA3C2000F026FA3C2000F023FAB32073
:1022A00000F00CFA052000F01DFA3C2000F01AFAAC
:1022B0003C2000F017FA052000F014FA3C2000F052
:1022C00011FA3C2000F00EFAB42000F0F7F90320D8
:1022D00000F008FAC02000F0F1F9AB2000F002FA9B
:1022E0000B2000F0FFF9042000F0FCF9C12000F001
:1022F000E5F9C52000F0F6F9C22000F0DFF90D2065
:1023000000F0F0F9002000F0EDF9C32000F0D6F95C
:102310008D2000F0E7F96A2000F0E4F9C42000F015
:10232000CDF98D2000F0DEF9EE2000F0DBF9C520BC
:1023300000F0C4F90F2000F0D5F9E02000F0BEF95C
:10234000072000F0CFF90E2000F0CCF9082000F0B3
:10235000C9F9072000F0C6F9102000F0C3F90720E2
:1023600000F0C0F9022000F0BDF9072000F0BAF932
:10237000092000F0B7F90F2000F0B4F9252000F093
:10238000B1F9362000F0AEF9002000F0ABF90820DA
:1023900000F0A8F9042000F0A5F9102000F0A2F93F
:1023A000E12000F08BF90A2000F09CF90D2000F0EC
:1023B00099F9082000F096F9072000F093F90F2012
:1023C00000F090F9072000F08DF9022000F08AF962
:1023D000072000F087F9092000F084F90F2000F0B1
:1023E00081F9252000F07EF9352000F07BF90020EE
:1023F00000F078F9092000F075F9042000F072F976
:10240000102000F06FF9FC2000F058F9802000F057
:1024100069F93A2000F052F9052000F063F93620FE
:1024200000F04CF9782000F05DF9212000F046F929
:10243000292000F043F92A2000F040F9002000F0A4
:1024400051F91A2000F04EF9002000F04BF96920F4
:1024500000F048F92B2000F031F9002000F042F99B
:10246000012000F03FF9002000F03CF9A02000F02E
:1024700039F9BDE810402C2000F020B900040240DA
:102480002DE9FF4F81B00446DDF83C9000904FEA03
:1024900059074FF00008780700D0012000EBD70063
:1024A00000FB09FB203AD0B20390029802994844FD
:1024B000401E83B2E019401E82B22046FFF750FE54
:1024C000002553E0B9F10C0F2AD0B9F1100F2ED02E
:1024D000B9F1180F2ED0B9F1200F49D1274903982F
:1024E00001EB8010002610F805A0109800284FF08E
:1024F000010000FA06F000EA0A0022D020B12046CE
:10250000049A0299FFF74DFE641C0098A4B2201AA9
:10251000B84225D10298009C401C80B2029023E072
:102520000398174900EB400001EB8000DAE71549FA
:10253000039803E00398144900EB400001EB0010FE
:10254000D0E708B1049800E00E9800F0ADF808F16B
:102550000100C0B2B0FBF7F1804607FB118050B11B
:10256000761CF6B2082EC0D36D1CADB25D45A9D362
:1025700005B0BDE8F08F4FF00008F5E71E710008C8
:10258000EA5400085E5900084E5F00082DE9FF4F2D
:1025900083B04FF0000BDDE91195DA4649468DE82E
:1025A00022041F46109B160004464FEA550805D426
:1025B000202220460499FFF763FF06E02D222046E3
:1025C0000499FFF75DFF704206B204EB080080B289
:1025D0000024039030E0381B401EC1B20A2002F0F4
:1025E00001FBB6FBF0F00A21B0FBF1F201FB120097
:1025F000BBF1000F05D1791E8C4202DA68B14FF0B1
:10260000010B3030C2B20398CDE9009504FB0800FD
:10261000CDF808A080B2109B09E0CDE900950398A1
:10262000109B04FB0800CDF808A080B2202204997A
:10263000FFF726FF641CE4B2BC42CCD307B0BDE870
:10264000F08F70B502FB03F40B4402444FF6FF76A3
:102650005B1E521E06EA44049BB292B2049DFFF731
:102660007FFD21462846BDE8704002F03BBD2DE9C4
:10267000FE4F9946DDE90D6714468A460546DDF8AA
:1026800030800CE0CDF800804B4651462846CDE91D
:102690000167FFF7F5FE05EB560085B2641C227852
:1026A000002AEFD1BDE8FE8F10B50446000A00F005
:1026B00019F8E0B2BDE8104000F014B870B5084C4D
:1026C0000546002204212046FEF743FE284600F07E
:1026D00009F82046BDE8704001220421FEF739BE0A
:1026E0000004024070B50D4D04460022102128461A
:1026F000FEF72FFE0A49CC600A4800688268D24380
:102700001206FBD58268D243D207FBD1C86828469F
:10271000BDE8704001221021FEF71BBE0000024000
:10272000003001402C0100207FB5002415480094A2
:10273000019402941249039401604FF48031C0E97E
:1027400001140461047680F820400F49C0E90A149E
:102750000125C561C46080F830404561FEF77EFB0D
:1027600008B1FEF787F9CDE90045694605480294AE
:10277000FEF7CEFA002801D0FEF77CF97FBD0000FD
:1027800000200140E40000200100000F1D4808B5B2
:10279000016841F480010160016801F48001009149
:1027A000016841F4001101600068002200F400108B
:1027B000009011461020FEF741FE1020FEF730FE7B
:1027C000002211461120FEF739FE1120FEF728FEE7
:1027D000002211463A20FEF731FE3A20FEF720FE95
:1027E000002211464420FEF729FE4420FEF718FE81
:1027F000002211464620FEF721FEBDE80840462093
:10280000FEF70EBE303802402DE9F04786B01421A5
:102810006846FDF725FD4C480024016841F004019D
:102820000160016801F004010591016841F0800137
:102830000160016801F080010591016841F001012A
:102840000160016801F001010591016841F0020198
:10285000016000683D4E00F002004FF460450590B5
:10286000002229463046FEF774FDDFF8E49000228E
:1028700010214846FEF76DFDDFF8D8A0012241F295
:1028800023015046FEF765FD40F204480022414610
:102890005046FEF75EFD00950125CDE901546946DD
:1028A00030460394FEF75AFC102703260097039640
:1028B000CDE9015469464846FEF750FCCDE9006574
:1028C000CDE9025669465046FEF748FCCDF8008037
:1028D0000396CDE9015469465046FEF73FFC4FF49C
:1028E00081500090CDE90154694650460394FEF7AB
:1028F00035FC280200901848CDE901046946484695
:10290000FEF72CFCE8038DE8310069464846FEF7E7
:1029100025FC082000901148CDE901056946504684
:10292000FEF71CFC009769465046CDE90145FEF7CD
:1029300015FC002203210920FEF780FD0920FEF787
:102940006FFD06B0BDE8F087303802400008024055
:10295000000002400004024000001110000021109D
:10296000104810B50E4901604FF48271416000219A
:1029700002228160C0E90312012242615202C0E9D1
:1029800006210162416281620A21C162FFF72AF8D1
:10299000002803D0BDE81040FEF76CB810BD000061
:1029A000003001402C0100200E4810B50C49016098
:1029B00000214FF48062C0E90112C1605210016130
:1029C000C0E905120162416281620A21C162FFF71A
:1029D00009F8002803D0BDE81040FEF74BB810BD41
:1029E000003800408401002010B58AB0002407940C
:1029F0001C2168460894FDF733FC224820490160F9
:102A00005421C0E901144FF47A71C0E903148461C0
:102A1000FFF79FF908B1FEF72DF8079407A91948A9
:102A20000894FFF7CBF808B1FEF724F86020CDE951
:102A3000000402940022694612480494FFF726F924
:102A400008B1FEF717F8042269460E48FFF71EF991
:102A500008B1FEF70FF8082269460A48FFF716F991
:102A600008B1FEF707F80C2269460648FFF70EF991
:102A700008B1FDF7FFFF0348FFF7DEF80AB010BD0D
:102A8000000800403C0200200C4810B50A490160D3
:102A90004FF4E1314160002181600C22C160C0E946
:102AA00004128161C161FFF79FF9002803D0BDE8DE
:102AB0001040FDF7DFBF10BD001001408402002070
:102AC0000C4810B50A4901604FF4E1314160002122
:102AD00081600C22C160C0E904128161C161FFF70D
:102AE00083F9002803D0BDE81040FDF7C3BF10BD37
:102AF00000440040C80200200C4810B50A4901609B
:102B00004FF461214160002181600C22C160C0E965
:102B100004128161C161FFF767F9002803D0BDE8A5
:102B20001040FDF7A7BF10BD001401400C030020AA
:102B3000134810B50488428883881248944241782B
:102B400002D99A4200D941B1944203D29A4201D2A9
:102B5000012906D0022906D001E0012141700020A0
:102B600010BD022141708188418000218180417027
:102B7000C188491CC180FEF795F8401CC0B210BD49
:102B8000CA000020A4000020FEE7FEE70C49002256
:102B90000A608A80A5220A7006224A7001228A7081
:102BA000C87010460A790B5C401C1A44C0B20A7106
:102BB0000428F7D35A2048710621014802F0A8BB27
:102BC00094D10020F0B585B000252E4C8DF80C5026
:102BD0008DF810508DF8045007462E46257001F0F0
:102BE000E0FA00280CD0207898B1012817D00228EC
:102BF00022D0032804D1234825700C3000F044F87B
:102C000005B0F0BD012203A9384601F042FA401C8C
:102C1000F6D09DF80C00A528F4D10120207038468C
:102C200001F0BFFA0728EBDB164905220C313846C4
:102C300001F02FFA02202070384601F0B2FA022883
:102C4000DEDB012201A9384601F023FA0D490420F8
:102C50000C310A5C401E3244D6B2C0B2F9D2012215
:102C600004A9384601F015FA9DF80400864203D104
:102C70009DF810005A2801D02570C1E7032020706C
:102C8000B9E70000C4000020134910B54A888A80C3
:102C90000A884A808A1F43885380007910719BB24A
:102CA0000020B3F5A07F00D950809388F02B00D985
:102CB00090805088C0F5A07080B2088007490978DC
:102CC000012908D106490A88904204D90880FEF7F4
:102CD00045FB0449086010BDCA000020A500002083
:102CE000A8000020B0000020164930B400220A607D
:102CF0004A600A818A72A5230B700B234B70212333
:102D00008B70835C8C18521CD2B2E370022AF8D309
:102D100002228C18835C521C8033D2B2E370062AE4
:102D2000F7D301204A7A0B5C401C1A44C0B24A72A5
:102D30000928F7D35A20887230BC0B21014802F0D1
:102D4000E7BA000094D1002070470000F8B50120D8
:102D500001F0ECFA30B3222853D1012001F0BAFA85
:102D6000400703D50421012002F0EAF8012001F018
:102D7000B7FA002845D0202800D920200246224852
:102D80000090831C2149012001F034FF1E48801C63
:102D9000C078422835D11D4C01251D4F20781128BF
:102DA0000AD00EE001B00023BDE8F040022141F658
:102DB0005832012002F00AB93D701649164801F058
:102DC00065FB20780026122803D13E70124801F0DE
:102DD0004BFB207813280CD11048017821B1002139
:102DE000017019B1032002E00121F9E70220FFF789
:102DF000CDFE05482178801E142903D0152900D165
:102E00004670F8BD4570F8BDDA000020D4D100202E
:102E10006D000020DD48000838D100208800002027
:102E2000124A10B511680B6823F040030B6010497B
:102E30000B684FF6C77423400B600B6803430B60AD
:102E4000086820F002000860086840F0020008608E
:102E5000086820F001000860086840F00100086080
:102E60001068016841F04001016010BD2C01002094
:102E700000300140F0B5324800688068C043C007A8
:102E800023D130480068304A0023012551780624B8
:102E9000C0B206292FD32D4F5668B855761C566000
:102EA000B6F5C04F02D3157053603AE006290DD035
:102EB00007290FD0082911D0092913D00A2915D0C4
:102EC0000B2902D1DB28EED05470F0BDC528FCD10F
:102ED00007200EE0DB28F7D108200AE0C528F3D14F
:102EE000092006E0DB28EFD10A2002E0C528EBD15B
:102EF0000B205070F0BD61B101290ED0022912D013
:102F0000032914D0042916D00529F3D1C62808D1E5
:102F1000DAE74328EED15570F0BDC62801D1022072
:102F2000E7E75370F0BD4328FBD10320E1E7C62853
:102F3000F7D10420DDE74328F3D10520D9E70000CD
:102F4000840100200C38004018000020A00D002053
:102F5000094909688A68D2439207FBD4074AD060BE
:102F60008868C0430006FBD58868C043C007FBD112
:102F7000D068C0B2704700002C0100200030014032
:102F80007047FEF7F1B9000030B593B030216846C4
:102F9000FDF766F914210CA8FDF762F91F4800251A
:102FA000016841F080510160006800F0805011908C
:102FB0001B48016821F4404141F400410160006870
:102FC000022400F440401190092000904FF480301A
:102FD00001900120CDE90504800507901920089093
:102FE000A820CDE9090404200B906846FEF744FBB5
:102FF00008B172B6FEE70CA90F2081E831004FF44A
:103000008050CDE90F0502210CA8FEF749FA0028EF
:1030100001D072B6FEE713B030BD00004038024068
:10302000007000400548016841F4700101600349E7
:103030004FF00060803908607047000088ED00E0C4
:10304000F0B502681D4B1E4C9F031E4D1E4E98424C
:1030500007D0B84205D0A04203D0A84201D0B04268
:1030600004D122F0700C4A6842EA0C02984210D057
:10307000B8420ED0A0420CD0A8420AD0B04208D02C
:10308000124CA04205D0124CA04202D0114CA042DA
:1030900003D122F44074CA6822434C6922F08002B2
:1030A000224302608A68C2620A688262984201D141
:1030B0000969016301214161F0BD00000000014088
:1030C0000004004000080040000C004000400140A7
:1030D000004401400048014030B5026A22F001027C
:1030E0000262026A4368846924F073050C682C4309
:1030F00022F002058A682A430A4DA8420BD122F029
:103100000805CA6823F440732A434D6922F004027B
:103110001D438B692B4343608461496841630262AC
:1031200030BD00000000014030B5026A22F01002FC
:103130000262026A436884690D6824F4E64444EA42
:1031400005248D6822F0200242EA05120B4DA842A8
:103150000ED1CD6822F0800242EA05124D6923F4B7
:10316000406343EA85038D6922F0400243EA850308
:103170004360846149688163026230BD00000140A0
:1031800030B5026A22F480720262036A4268C4693E
:1031900023F4007324F073050C682C438D6843EA14
:1031A00005230C4DA8420ED1CD6823F4006343EAF9
:1031B00005234D6922F4405242EA05128D6923F439
:1031C000806342EA05124260C4614968C1630362D8
:1031D00030BD00000000014030B5026A22F4805288
:1031E0000262046A4268C3690D6823F4E64343EA55
:1031F00005238D6824F4005444EA0534064DA842A2
:1032000004D14D6922F4804242EA85124260C361D2
:1032100049680164046230BD0000014038B50546CC
:103220000C46002001F082F870B122280BD10B4926
:10323000012008700A48A2B20A4B00880090294673
:10324000002001F0F5FD38BD074800230221028867
:1032500001B01846BDE8304001F0B8BED8000020EB
:1032600068000020640000206200002070B5044661
:1032700000680169E26821F440511143016121694C
:10328000A068E26908436169114308432168CA687C
:1032900049F20C639A430243CA6020684169A269FB
:1032A00021F440711143416131492068884202D0C4
:1032B0003049884202D1FEF79DF901E0FEF78AF914
:1032C000E2690023192164253226B2F5004F6268B5
:1032D00028D0A0FB0101930F9200FCF777FF014675
:1032E000B0FBF5F06FF01802504301EB800006EBE5
:1032F0000010B0FBF5F000F0F002B1FBF5F002EBCE
:103300000012B1FBF5F06FF01803584301EB800099
:1033100006EB0010B0FBF5F000F00F002168104440
:10332000886070BDA0FB010192185B41FCF74EFF65
:103330000146B0FBF5F00201B1FBF5F06FF01803A8
:10334000584301EB800006EBC000B0FBF5F000F045
:10335000F80002EB4002B1FBF5F0584301EB8000AE
:1033600006EBC000B0FBF5F000F00700D6E7000068
:1033700000100140001401402DE9F0419846174625
:103380000E460446069D1DE0681C1BD02DB1FDF7BE
:10339000E5FFA0EB0800A84214D92068C16821F419
:1033A000D071C1602068416921F001014161202094
:1033B00084F83D0084F83E00002084F83C0003209F
:1033C000BDE8F0812068006836EA000004D00020E3
:1033D000B842D9D00020F3E70120F9E71F4818B41C
:1033E0000068C00637D51E4801680A684968009120
:1033F000816B09680A681B4B12030A684FF48074DA
:1034000022F001020A60816B09684A68C2F5807285
:1034100092B21A804C60816B09680B680CD443F43B
:1034200000230B60806B0068016841F001010160BE
:103430000D4901F580600BE023F400230B60806BE5
:103440000068016841F001010160084901F5407020
:1034500018BC00F068BE18BC7047000000100140A6
:103460008402002010000020F0040020F00500205D
:1034700038B520480068C0063BD51F4801680A6877
:1034800049680091816B09680A681C4B12030A683D
:103490004FF4807422F001020A60816B09684A6867
:1034A000C2F5807292B25A804C60816B09680B68D9
:1034B0000CD443F400230B60806B0068016841F07A
:1034C000010101600E4901F580600BE023F4002347
:1034D0000B60806B0068016841F0010101600949DF
:1034E00001F5407000F01FFEBDE838400648FFF7C8
:1034F00069BB38BD00440040C80200201000002015
:1035000008090020080A0020080D0020FEE700003E
:103510000FB4054B10B503A9044A029800F0EAF86D
:1035200010BC5DF814FB000095420008E00000208C
:103530000907090E002804DB00F1E02080F80014E0
:10354000704700F00F0000F1E02080F8141D704774
:1035500002E008C8121F08C1002AFAD1704770475C
:10356000002001E001C1121F002AFBD170470000BA
:103570002DE9FF5F82B00021DDE90430020DDDF8A6
:1035800040B0034318D044F61050A2F2FF32424339
:103590001514119801281FD0A5EB0B00401C5FEA01
:1035A000000A4FF000064E4FDFF83891B046504603
:1035B00015D5CAF1000413E0119801244AA301288B
:1035C00001D16FEA0B010298119AC0E90031C0E9FC
:1035D000024206B0BDE8F09FCBF10000DFE70446F1
:1035E0000021404A491842EB0450CDE9001012E096
:1035F000E00707D032463B4640464946FDF743F8D0
:103600008046894632463B4610461946FDF73BF850
:1036100006460F466410002CEAD1DDE90401DDE91D
:103620000023BAF1000F06DAFDF72DF842464B46AB
:10363000FDF729F805E0FCF71EFE42464B46FCF775
:103640001AFE04460E460022284BFDF7A7F803D8C1
:103650004FF0FF30014607E00022254B204631465F
:10366000FCF76AFFFDF781F8102409E0002C0ADB63
:103670000A220023FCF7AAFD039B30321A55641E70
:1036800050EA0102F2D1641C039AC4F111031444FC
:10369000119A012A03D0012208430DD10AE0084300
:1036A00004D000204FF0110B119072E7A3EB0B0533
:1036B0006D1E0DE05B4504DD4FF0000205F10105D4
:1036C00004E003DA4FF00002A5F10105002AECD076
:1036D00002981199C0E90231C0E9004579E700007C
:1036E000000014400000F03F300000000000F043F4
:1036F0000000E03F2DE9FF4F95B09B468946064606
:1037000000250FE2252877D100242746F84A012119
:10371000059400E0044316F8013F203B01FA03F052
:103720001042F7D130782A2811D06FF02F0330786B
:10373000A0F13002092A16D8059A44F0020402EBDF
:10374000820203EB42021044761C0590EFE759F821
:10375000042B0592002A03DA504244F400540590E9
:1037600044F00204761C30782E2816D116F8010F8A
:1037700044F004042A280DD06FF02F023078A0F115
:103780003003092B09D807EB870302EB4303C71863
:10379000761CF3E759F8047B761C30786C280FD040
:1037A00006DC4C2817D068280DD06A2814D104E014
:1037B000742810D07A280FD10DE044F400140AE0E8
:1037C00044F4801401E044F440147278824202D13F
:1037D00004F58014761C761C307866280BD013DC38
:1037E000582877D009DC002875D04528F6D046281F
:1037F000F4D047281AD19DE118E0632835D0642819
:1038000079D0652812D195E1702873D008DC67283B
:10381000F1D069286FD06E280DD06F2806D1B5E0A1
:1038200073282CD0752875D0782874D05A461799EB
:1038300090476D1C75E1C4F30250022809D003289B
:103840000DD0D9F8001004280DD00D6009F104093D
:1038500067E1D9F80010EA17C1E90052F6E7D9F894
:1038600000100D80F2E70D70F0E719F8041B8DF8D9
:10387000001000208DF80100EA46012003E059F80D
:1038800004AB4FF0FF3061074FF0000102D40DE0B0
:1038900008F101018846B9420FDA8045F8DB1AF8D1
:1038A00008100029F4D108E008F10101884681429E
:1038B000FADB1AF808100029F6D105985B46A0EB50
:1038C000080721463846179A00F094FA284400EB7E
:1038D000080507E04DE029E10DE01AF8010B5A4612
:1038E00017999047B8F10108F7D25B462146384650
:1038F000179A13E142E00A220092C4F302524FF0F9
:10390000000A022A08D059F804CB032A4FEAEC71C6
:103910000AD00DE029E02AE009F1070121F00702B1
:10392000F2E802C1914609E00FFA8CFC4FEAEC7113
:10393000042A03D14FFA8CFC4FEAEC71002907DA14
:103940000A460021DCF1000C61EB02012D2202E0AD
:10395000220504D52B228DF80420012203E0E20782
:1039600001D02022F7E7904659E00A2102E0102218
:103970000DE010214FF0000A00910BE010224FF0F3
:10398000000A44F004040827009203E008224FF0E4
:10399000000A0092C4F30252022A05D059F804CB5F
:1039A0000021032A08D009E009F1070121F00702EC
:1039B000F2E802C1914605E01FFA8CFC042A01D10D
:1039C0000CF0FF0C4FF00008220728D5702806D015
:1039D000009B83F0100353EA0A0305D00EE0402257
:1039E0008DF80420012208E05CEA010206D03022B2
:1039F0008DF804208DF8050002229046009B83F08C
:103A0000080353EA0A030AD15CEA010201D1620702
:103A100005D530228DF804204FF001087F1E58286C
:103A200004D034A003900EA802900DE036A0F9E770
:103A300053466046009AFCF7C9FB84460398825CB3
:103A40000298401E029002705CEA0100F0D10298D8
:103A500006A9081A00F1200A600702D524F4803470
:103A600000E00127574502DDA7EB0A0000E0002037
:103A700000EB0A01009005984144401A0590E003CC
:103A800006D45B462146179A059800F0B3F9054421
:103A9000002706E001A85A46C05D179990476D1CA3
:103AA0007F1C4745F6DBE0030CD55B462146179AA1
:103AB000059800F09FF9054404E030205A46179914
:103AC00090476D1C0099481E00900029F5DC08E025
:103AD000029802995A460078491C0291179990471A
:103AE0006D1CBAF10001AAF1010AF1DC65E10000E8
:103AF00009280100303132333435363738396162C4
:103B00006364656600000000303132333435363787
:103B100038394142434445460000000000F058F95E
:103B20000544761C307800287FF4ECAD19B02846A7
:103B3000BDE8F08F620700D4062709F1070222F0E2
:103B4000070CFCE80223E14603F000485FEA080C9A
:103B500002D00FF2702C0DE05FEA045C02D50FF288
:103B6000682C07E05FEAC47C02D00FF2602C01E011
:103B7000AFF2700C4FF0FF3823F00043CDF850C087
:103B800065280CD006DC452809D046281DD04728DA
:103B90003DD13DE0662818D067287ED138E000216D
:103BA000112F01DB112000E0781CCDE9000106A9EE
:103BB0000EA8FFF7DDFCDDE90F010E9A039100214D
:103BC000009207F1010A04914DE04FF00040009788
:103BD000CDE9011006A90EA8FFF7CAFCDDE90F0226
:103BE00003920E9B11990022DDF80CA00093049221
:103BF00011B9791C00EB010AB7EB0A0004D4C0F13B
:103C0000FF3007F1010A0490AAEB0700019044E09D
:103C1000012F00DA01270021112F01DD112000E022
:103C20003846CDE9000106A90EA8FFF7A1FCDDE9A1
:103C30000F010E9A0391002104910092BA462107C8
:103C40000CD40399514500DA8A46BAF1010F05DD1B
:103C5000009AAAF10101515C302908D0B84202DA79
:103C600010F1040F06DA0121CDE9011015E0AAF1E7
:103C70000101E9E7002805DC049901440491AAEB5D
:103C8000000102E0411C514500DD8A460499401ABA
:103C9000401C01904FF000400290200704D401988E
:103CA000504501DBCDF8048000208DF84F000298CC
:103CB0000DF14F07B0F1004F25D02B200E90029848
:103CC0004FF0020800280CDA404202902D200E909E
:103CD00007E00A210298FCF766FB3031029007F8F2
:103CE000011DB8F10001A8F10108F2DC02980028DA
:103CF000EFD1791E0E980870307800F0200040F067
:103D0000450007F8020D12A8C01B00F1070814981F
:103D1000007800B1012000EB0A01019801EBE0718D
:103D200005984144401A401E0590E00306D45B46C6
:103D30002146179A059800F05DF80544149800781C
:103D400018B15A46179990476D1CE00324D55B467D
:103D50002146179A059800F04DF805441CE0049898
:103D6000002807DBDDE90301884203DD0098405CA1
:103D7000179901E0179930205A469047049805F1A9
:103D80000105401C04900198401E019004D12E2092
:103D90005A46179990476D1CBAF10001AAF1010A21
:103DA000DDDC05E017F8010B5A46179990476D1CAA
:103DB000B8F10001A8F10108F4DC5B462146179A2E
:103DC0000598ABE62D0000002B000000200000004D
:103DD0002DE9F041044600251E461746880404D408
:103DE00005E039462020B0476D1C641EF9D52846F1
:103DF000BDE8F0812DE9F041044600251E469046BD
:103E0000C80301D5302700E02027880404D505E049
:103E100041463846B0476D1C641EF9D52846BDE8BA
:103E2000F081000038B501F07BFA01F055FA01F09D
:103E300061FA00F02DF90020FEF7F2FFFEF7F4F929
:103E40006420FDF7CFF800205023A0220146009007
:103E5000FEF7B2F91149124800F0F3FA09221149AC
:103E6000114800F0DDF9114C012220212046FDF718
:103E700070FA012211032046FDF76BFA6420FDF76A
:103E8000B1F800F077FF01F095F801F05FF8BDE8B8
:103E900038400749074801F0E3B80000FD49000831
:103EA00038D100209C0000200000020800040240DD
:103EB000440000203C00002001F09EFADFF86481FD
:103EC000DFF864B1A8F14009584F594C4FF4005A3B
:103ED000A9F5BB46574800F0BCFA5748FEF772FEFA
:103EE0006078012832D1FDF739FAE168401A642878
:103EF0002CD3FDF733FAE060FEF71AFE022825D135
:103F0000B52188F800104D4A88F80110494612681A
:103F100041F8422F4A4A404612888A8098F8021097
:103F200098F8032098F80530114498F804201A44B2
:103F3000114482791144C27911440172092139482E
:103F4000FFF76CF951465846FDF7FBF9FDF706FA05
:103F5000A168401A642804D3FDF700FAA060FEF7B8
:103F6000F5FEFDF7FBF92169401A322805D3FDF76C
:103F7000F5F920612F4800F074FAFDF7EFF9616957
:103F8000401A0A2804D3FDF7E9F96061FCF718FD2F
:103F9000FDF7E4F96168401A64289BD3FDF7DEF968
:103FA00060603878012817D1C521264A88F80010AA
:103FB00088F801101288A9F8422098F8021098F8A1
:103FC00003201848114488F804100521FFF726F94A
:103FD00051465846FDF7B5F9207801287FF47AAFAD
:103FE000387801283FF476AFA57845B945F6C05238
:103FF00015491648FCF71BF9A5203070707005EBC9
:104000004500C0EBC5106D1C06EB8010A5704FF489
:10401000FA51FFF703F9A07802287FF65BAF002082
:10402000A07057E72CD1002000080240D9000020E2
:104030006C00002038D10020080D0020C0000020B6
:10404000A6000020C6000020A00D00206C730020F8
:1040500070B505464FF4847000EB451004461021FE
:10406000FEF762F82046FEF743F80028FAD14FF435
:10407000027000EB4510BDE87040FF21FEF754B818
:1040800003E04F21491E09B2FCD2401EF9D270470D
:1040900070472DE9F0475FEA01080546EFF3108607
:1040A00072B630D0EC6874B329696868814201D96E
:1040B00029682961944200DD1446471A7F1CA742F3
:1040C00006DB22464046FCF7B2F8286920440EE0A1
:1040D000A4EB07093A464046FCF7A9F808EB0700AD
:1040E0004A462968FCF7A3F8296801EB0900286112
:1040F000A8682044A860E868001BE860204686F3B2
:104100001088BDE8F08786F310884FF0FF30F8E79D
:104110008B185B1E0160C0E901320022C0E9032157
:104120004161104670472DE9F0475FEA01080546F6
:10413000EFF3108672B62FD0AC686CB3696868690B
:10414000884201D928686861944200DD14460F1A3C
:104150007F1CA74206DB22464146FCF768F86869E7
:1041600020440DE0A4EB07093A464146FCF75FF80E
:1041700008EB07014A462868FCF759F828684844C4
:104180006861A868001BA860E8682044E8602046D1
:1041900086F31088BDE8F08786F310884FF0FF3073
:1041A000F8E7C0687047000010B50022A0F1006475
:1041B0004FF4804386B09C4219D3154A02449A4278
:1041C00001D2012213E0134A02449A4201D2022290
:1041D0000DE0114A02449A4201D2032207E00F4A3D
:1041E0001044B0F5803F01D2042200E005220020F7
:1041F000009002920220CDE90310FCF799FF05A977
:104200006846FCF701FFFCF74BFF06B010BD00004D
:1042100000C0FFF70080FFF70040FFF70000FFF746
:104220000B46014692001846FCF701B82DE9F04113
:1042300015460F460646FCF77BFF154C30462660B8
:1042400000F07AF8C4E901070020E06017E0A068F8
:10425000002302680220FCF72DFF28B1FCF720FFA5
:104260004FF0FF30BDE8F0812068001D2060A0689D
:10427000001DA060E068401CE060A84203D0D4E9C3
:1042800000108142E3D9FCF70BFF0020EAE70000B1
:104290002000002038B504468DF800006946032050
:1042A000ABBE204638BD04220146900101F0C4B8DF
:1042B000014931F810007047307300200146042294
:1042C0004FF4706001F0B8B8014604224FF4A060CA
:1042D00001F0B2B84FF4027101EB4010FDF708BFD6
:1042E0002DE9F04142F2086101EB401542F20871FC
:1042F000002601EB40142846FDF7FAFE074620464B
:10430000FDF7F6FE00EB072007043F0C09D0284616
:10431000FDF7EEFE06462046FDF7EAFE00EB06201E
:1043200086B2BE42E7D13046BDE8F0814FF442711B
:1043300001EB4010FDF7DCBEA0F100624FF48041BC
:104340008A4201D226487047254A524202448A4294
:1043500001D224487047234A524202448A4201D281
:1043600021487047204A524202448A4201D21F48E3
:1043700070471E4949420144B1F5803F01D21C48B3
:1043800070471B49494242184FF400318A4201D21A
:1043900018487047174A524202448A4201D21648CE
:1043A0007047154A524202448A4201D2134870476C
:1043B000124A524202448A4201D211487047104ABE
:1043C000524202448A4201D20E4870470D4A52427C
:1043D0001044884201D20C4870474FF0016070478A
:1043E000004000080080000800C00008000001082C
:1043F0000000020800000408000006080000080889
:1044000000000A0800000C0800000E08FCF7B4FFCA
:10441000FEF7BAFDFEF7F8F9FEF7B8F9FEF734FB40
:10442000FEF79EFAFEF768FBFEF77EF9FEF7DCFA70
:10443000FEF7BAFAFEF744FBFFF7F4FCFFF73CFD8A
:10444000FCE7002904D001600121017180F85A10B5
:1044500070470179012903D10021017100680047EB
:10446000704701210171704790F8581000290BD056
:10447000491EC9B280F8581000EB810189680160BB
:104480000121017180F85A107047000070B50022B8
:10449000002914D090F85830142B10D205688D42A2
:1044A0000DD001240EE000BF00EB8206B6688E42FC
:1044B00006D180F858200160047180F85A4070BD20
:1044C000521CD2B29342EFD800EB83025B1C80F8FF
:1044D00058309560EFE70000FEB51D48002490F8C5
:1044E0005A10E9B180F85A4000215023A022084612
:1044F0000094FDF761FE10254FF4FC66CDE9004500
:10450000334614A2294608200294FEF7B0F8CDE9FC
:104510000045334612A2202108200294FEF7A7F896
:104520001348017841B104701248002100905023D3
:1045300080220846FEF785F8FCF75CFA002806D0D2
:104540000D480470BDE8FE400148FFF78DBFFEBD79
:1045500038D100204E4F20566964656F000000007E
:10456000506C6561736520526573657400000000CE
:1045700018000020A00D0020840000202DE9FE4F2F
:104580000020FEF74DFCC248C24D002490F85A109E
:104590004FF0100A4FF4FC684FF478494FF6FF775C
:1045A000A5F1140B00297CD080F85A40002150233B
:1045B000A02208460094FDF7FFFD8BF80240564606
:1045C0005346082221460020CDF80090FDF7F4FD67
:1045D000CDE900464346B0A2002108200294FEF730
:1045E00046F8CDE900464346ADA20021582002948A
:1045F000FEF73DF8CDE900464346ABA21021082066
:104600000294FEF734F8CDE900464346A8A21021F3
:1046100058200294FEF72BF8CDE900464346A6A2A7
:10462000202108200294FEF722F8CDE900464346F7
:10463000A3A2202158200294FEF719F8CDE90046E4
:104640004346A1A2302108200294FEF710F8CDE9DC
:10465000004643469EA2302158200294FEF707F8F8
:10466000CDF80080CDE901462A78032300212E20D1
:10467000FDF78CFFCDF80080CDE901466A78032371
:1046800000217E20FDF782FFCDF80080CDE90146B4
:10469000AA78032310212E20FDF778FFCDF80080A3
:1046A00000E01BE0CDE90146EA78032310217E20DB
:1046B000FDF76CFFCDF80080CDE901462A79032390
:1046C00020212E20FDF762FFCDF80080CDE90146C4
:1046D0006A79032320217E20FDF758FFFCF796F925
:1046E000CBF80C00DBF810105E46884237D07278A9
:1046F00092BB8842B07801DD401C00E0401EB070E3
:1047000040B2072800DD0720B070002800DA002042
:10471000B07000215023082208460094FDF74CFD9C
:1047200050235822002118460094FDF745FD96F9C4
:104730000200CDF80090C10700EBD0704FEA600096
:104740004FEA001101F110018BB207EA001107D006
:1047500058225020FDF730FD7078012803D04BE03F
:1047600008220020F6E796F90200062844DA2DD246
:10477000DFE800F0030A11181F26327B337C29780A
:10478000D21A1144297021E0327B337C6978D21A25
:10479000114469701AE0327B337CA978D21A114433
:1047A000A97013E0327B337CE978D21A1144E970A6
:1047B0000CE0327B337C2979D21A1144297105E04F
:1047C000327B337C6979D21A114469712A5CFF2AE1
:1047D00000D300222A54C10700EBD0704FEA6000DA
:1047E00007EA00114FF00303CDF808A025D07E2082
:1047F000CDE90084FDF7CAFEF0683061FCF7FAF8F5
:10480000002834D096F90200062818D0072825D0B1
:10481000717841B30021717000294FEAC07128D02E
:10482000009751B300EBD0704010010110318BB2F2
:1048300007EA00115822502017E02E20D8E7264C16
:1048400001212046FFF7B0FC092212492046FFF75C
:10485000EDFCBDE8FE4F0F48FEF746BABDE8FE4F3F
:104860000B48FFF701BE0121D5E7FDF7A5FCBDE828
:10487000FE8FCDF800900029D4D100EBD07040100D
:10488000010110318BB207EA001108220020ECE789
:1048900038D100209C0000204C6D696E3A00000069
:1048A0004C6D61783A000000416D696E3A0000007D
:1048B000416D61783A000000426D696E3A00000077
:1048C000426D61783A000000536176650000000097
:1048D0004261636B0000000000000208FEB5194849
:1048E000194E002490F85A1009B380F85A404FF43A
:1048F000FC6500215023A02208460095FDF75CFCD2
:1049000010270095CDE90174002310A23946082034
:10491000FDF7ADFE0095CDE9017400230EA2202124
:104920000820FDF7A4FE1049012008703070FCF744
:1049300061F8002805D03470BDE8FE400148FFF75B
:1049400093BDFEBD38D100206D0000204D65617320
:104950007572696E67000000507265737320746F22
:1049600020657869740000006C000020FEB51848CE
:10497000184D002490F85A10F9B180F85A400021DF
:104980005023A02208460094FDF716FC1026CDE91E
:1049900000464FF4FC673B460FA2314608200294C4
:1049A000FDF765FECDE900463B4610A22021082018
:1049B0000294FDF75CFE01202870FCF71BF800282C
:1049C00005D02C70BDE8FE400148FFF74DBDFEBD8F
:1049D00038D100206C000020554450205472616E84
:1049E000736D697474696E670000000050726573BE
:1049F0007320746F20657869740000002DE9FE4F04
:104A00000020FEF70DFA5C481026002590F85A1099
:104A10005A4C4FF4FC684FF478474FF6FF794FF04B
:104A2000010A00293BD080F85A5000215023A022CF
:104A300008460095FDF7C0FBCDE90056434650A25D
:104A4000002108200295FDF712FECDE900564346ED
:104A50004EA2102108200295FDF709FE2078CDE92D
:104A6000005601284346029524D04DA2202108205B
:104A7000FDF7FDFDCDE9005643464EA2302108204A
:104A80000295FDF7F4FDFBF7C1FF6060A060A57023
:104A900033460822294600200097FDF78DFBFBF7DF
:104AA000B5FF6060A168884225D0A07804DD00F1E0
:104AB000010003E042A2D9E7A0F10100A07040B2DA
:104AC000032800DD0320A070002800DA0020A07079
:104AD00000215023082208460095FDF76DFB009742
:104AE00094F902000822010110318BB209EA001189
:104AF0000020FDF761FB6068A060FBF77BFF0028EA
:104B000038D0A07818B933491B48FFF7BFFCA0780C
:104B1000012803D130491848FFF7B8FCA0780228D3
:104B20001BD1207858B10020207050B10320FEF72F
:104B30002DF8CDE90056434621A2029509E0012057
:104B4000F2E70220FEF722F8CDE90056434614A210
:104B5000029520210820FDF78AFDA078032809D1BD
:104B60001E49054881F800A003B01D49BDE8F04F7B
:104B7000FFF78CBCBDE8FE8F38D1002088000020F4
:104B80005374617274205544500000004F50454EDC
:104B90004D5620436F6E66696775726500000000B0
:104BA0004F563A546F2042696E204D6F6465202045
:104BB00000000000446562756720566964656F00F7
:104BC0004F563A546F20436F6C6F72204D6F64657F
:104BD000000000006D4900087D45000884000020A9
:104BE000D94400080246012000E05043491EC9B2E2
:104BF000FBD270472DE9FF4F83B00024DDF840A0C1
:104C00001D460646002A7BD042F6080000EB4610FF
:104C10008146FDF76DFA074642F6081000EB461094
:104C20008046FDF765FA00EB072087B2380200EBFB
:104C3000461000F1180B082000EB4610FDF758FA5B
:104C400000F00700022804D0032824D004284ED105
:104C500060E008226946584600F0EEFB9DF800002F
:104C600028709DF8010068709DF80200A8709DF8FA
:104C70000300E8709DF80400AAF800009DF80510F4
:104C8000083701EB0020AAF80000BFB29DF806002B
:104C90009DF8071016E006226946584600F0CCFB46
:104CA0009DF8000028709DF8010068709DF80200D2
:104CB000A8709DF80300E870BF1D9DF804009DF8E2
:104CC0000510BFB201EB002084B2380200EB4610A1
:104CD00022461830049900F0AFFB381985B2290A32
:104CE0004846FDF721FAE9B24046FDF71DFA4FF4B8
:104CF000847000EB461005464021FDF715FA00E0F0
:104D000004E02846FDF7F4F90028F8D107B0204662
:104D1000BDE8F08F02226946584600F08DFB9DF8F1
:104D200000009DF801106FF0010202EB0020084422
:104D3000BF1C84B240F2EA50BDB2844203D907A03E
:104D4000FEF7E6FBFEE7280200EB4610224618308D
:104D5000049900F071FB2819C0E7000064617461D8
:104D60005F6C656E206F76657220313531340D0AC7
:104D70000000000070B50B4D4FF480540022214616
:104D80002846FCF7E6FA6420FFF77AF9012221466B
:104D90002846FCF7DEFABDE870404FF4C860FCF727
:104DA00021B90000000402402DE9F0475FEA020843
:104DB0008946044626D042F2084000EB44163046AD
:104DC000FDF796F9074642F2085000EB44152846D5
:104DD000FDF78EF900EB072087B2380200EB441094
:104DE00042464946103000F04BFB07EB080084B206
:104DF000210A3046FDF798F9E1B22846BDE8F047B0
:104E0000FDF792B92146BDE8F04701A0FEF780BB4F
:104E100043483A20256420556E6578706563746553
:104E20006431206C656E67746820300D0A000000E4
:104E30002DE9F0411D46164688460446069FFFF7B9
:104E400037FAB04203D22046FFF732FA06462978F5
:104E500029B9687818B9A87808B9E878F0B3EFB339
:104E600040F6084000EB4410FDF75EF940F60850AC
:104E7000697800EB4410FDF757F940F60860A9780F
:104E800000EB4410FDF750F940F60870E97800EBAC
:104E90004410FDF749F941F20800390A00EB4410CB
:104EA000FDF742F941F20810F9B200EB4410FDF7AA
:104EB0003BF9324641462046FFF776FF4FF48470B7
:104EC00000EB441005462021FDF72EF92846FDF79A
:104ED0000FF90028FAD14FF4027000E012E000EB65
:104EE00044142046FDF704F9C00620460CD4FDF713
:104EF000FFF80007F5D520461821FDF715F9002029
:104F0000BDE8F081002602E01021FDF70DF93046E2
:104F1000F6E704220146900100F0B2BA01460622EB
:104F20004FF4106000F0ACBA014604224FF47060F8
:104F300000F0A6BA014604224FF4A06000F0A0BA27
:104F40004FF4027202EB4010FDF7EEB810B51848AE
:104F5000164C01692160818AA1800168C4F806109D
:104F60004168C4F80A108168C4F80E10C068C4F81B
:104F700012000120A0760020E07604F10A00FFF77D
:104F8000D9FF04F10E00FFF7C4FFA01DFFF7CCFF0F
:104F90000748FFF793F90648001DFFF795F9044805
:104FA000BDE810400830FFF77EB9000050730020C4
:104FB0004C000020044903480A690260898A818004
:104FC000FFF7ACBF507300204C0000202DE9F041EA
:104FD000054601F00F001F4616460C4601280AD070
:104FE000022808D0032806D0042804D0052802D0BF
:104FF0000020BDE8F0812846FFF72AF8082044EA9F
:10500000070100EB4510FDF78FF84FF481604FF476
:10501000A16100EB451001EB451426B1310AFDF703
:1050200083F8F1B208E00D4E3188491C89B2318015
:10503000090AFDF779F831782046FDF775F84FF445
:10504000847000EB451004460121FDF76DF8204601
:10505000FDF74EF80028FAD10120CAE762000020CF
:105060002DE9F05F0026DFF878A088460746354630
:1050700034464FF6FF790AF1100B41F60870395D9E
:1050800000EB4410FDF750F841F6086018F80410E2
:1050900000EB4410FDF748F800222AF814202BF802
:1050A00014204FF4804250465946964205DC17F8CA
:1050B00004C009EA8C2320F81430954205DC18F866
:1050C000043009EA832221F814203AF81400064437
:1050D0003BF81400641C0544082CCEDBBDE8F09FAF
:1050E000307300202DE9F041DFF8CC800C460546F6
:1050F000002210214046FCF72CF9304A1068016864
:1051000021F00101016010680168C907F7D1116839
:105110002B4888601068C5601068016821F4006140
:1051200001601068016821F4005101601068016895
:1051300041F480610160106844601068016841F0CA
:1051400001010160106801681E4D1F4A1F4B204C71
:10515000C90712D01B4E543E371FA84201D93168EF
:1051600008E0904201D9396804E0984201D96168A9
:1051700000E0216811F4006FEFD04FF40061A84205
:1051800002D910484C3803E0904203D90D485038FA
:10519000016004E0984201D9E16000E0A1600D489F
:1051A00000688168C9430906FBD54046BDE8F04167
:1051B00001221021FCF7CDB800000240DC010020E4
:1051C0000C30014058640240B86002405860024010
:1051D000006002402C0100202DE9F041DFF8D4806E
:1051E0000C460546002210214046FCF7B2F8324A30
:1051F0001068016821F00101016010680168C907A9
:10520000F7D111682D4888601068C5601068016882
:1052100041F4006101601068016841F400510160CF
:105220001068016821F480610160106844602449BD
:10523000012008701068016841F0010101601068E8
:105240000168204D204A214B214CC90712D01D4E28
:10525000543E371FA84201D9316808E0904201D975
:10526000396804E0984201D9616800E0216811F4CE
:10527000006FEFD04FF40061A84202D911484C38BA
:1052800003E0904203D90F485038016004E098428F
:1052900001D9E16000E0A1600E4800688168C9435F
:1052A0000906FBD54046BDE8F04101221021FCF77C
:1052B00050B8000000000240DC0100200C3001402A
:1052C0001400002058640240B86002405860024058
:1052D000006002402C010020054801680A6842F085
:1052E00040020A600068416841F002014160704775
:1052F0002C010020054801680A6842F040020A605B
:105300000068416841F0400141607047840100201D
:105310008AB20146FF230148FCF790BEC802002074
:105320002D4910B54FF4007201F50070FEF7F0FE44
:105330002A4801684A6942F040024A6101684A69A4
:1053400042F080024A610068C16841F01001C1600A
:10535000234801680A6822F001020A6001680A68AD
:10536000D207F7D11F4CE214A14202D91D4B4C3B8E
:1053700004E01D4B994203D91A4B503B1A6008E0D8
:10538000194C194B603CB83BA14201D9DA6000E0EE
:105390009A60164A8A6003681549D960036801F566
:1053A0008071196103689115596001680B6843F4B5
:1053B00080230B600068016841F0010101600D4825
:1053C00001680B6823F001030B6001680B68DB07C1
:1053D000F7D18A6010BD0000080B0020C802002031
:1053E0001004002058640240B860024004440040A9
:1053F0000809002070040020064800219FED060ADD
:10540000418080ED070A8180C1804170C1600161E7
:1054100070470000A400002000000000054B30B1E0
:10542000012806D1012220211846FBF792BF002255
:10543000F9E77047000402402DE9F04105460024D9
:1054400016460F462046FFF7E9FFC5F30740FDF774
:105450007FFDC5F30720FDF77BFD05F0F800FDF7A4
:1054600077FD05E00020FCF75DFE3855641CA4B212
:10547000B442F7D30120FFF7D1FF3046BDE8F081F9
:105480002DE9F0410546002416460F462046FFF759
:10549000C5FFC5F30740FDF75BFDC5F30720FDF72A
:1054A00057FD05F0F800001DC0B2FDF751FD04E006
:1054B000385DFDF74DFD641CA4B2B442F8D3012061
:1054C000FFF7ACFF3046BDE8F0810006101600067D
:1054D000101600000000000000000102030406078F
:1054E00008090000000001020304000000000000A1
:1054F0000000000000000000040404040400000494
:10550000000014140A000000000000000000000069
:105510000A0A1F0A0A1F0A0A000000040E150506DF
:105520000C14150E0400000012150D152E2C2A1255
:1055300000000000040A0A361515291600000202B0
:10554000010000000000000000001008080404042E
:1055500004040808100002040408080808080404E9
:10556000020000000004150E0E15040000000000EB
:105570000008083E080800000000000000000000CD
:1055800000000202010000000000003F00000000D7
:1055900000000000000000000000000200000020E9
:1055A0001010080804040202010000000E1111117D
:1055B0001111110E00000000040604040404040E7E
:1055C000000000000E1111080402011F000000007D
:1055D0000E11100C1010110E00000000080C0C0A27
:1055E000091F081C000000001F01010F1110110EFF
:1055F000000000000C12010D1311110E000000003C
:105600001E10080804040404000000000E11110E0E
:105610001111110E000000000E11111916100906CB
:105620000000000000000400000000040000000072
:105630000000000400000004040000001008040240
:10564000020408100000000000003F003F000000BE
:10565000000000000204081010080402000000000E
:105660000E11110804040004000000001C22292D62
:105670002D1D221C0000000004040C0A0A1E123317
:10568000000000000F12120E1212120F0000000094
:105690001E1101010101110E000000000F12121273
:1056A0001212120F000000001F120A0E0A02121F2F
:1056B000000000001F120A0E0A020207000000008C
:1056C0001C1201013911120C000000003312121ECD
:1056D00012121233000000001F0404040404041F0B
:1056E000000000003E080808080808080907000034
:1056F00037120A060A1212370000000007020202DF
:105700000202223F000000003B1B1B1B1515153534
:10571000000000003B1216161A1A121700000000B3
:105720000E1111111111110E000000000F12120EB6
:1057300002020207000000000E1111111117190ECC
:10574000180000000F12120E0A121237000000009B
:105750001E1101060810110F000000001F1504049F
:105760000404040E00000000331212121212120C74
:10577000000000003312120A0A0C040400000000AA
:10578000151515150E0A0A0A000000001B0A0A0466
:10579000040A0A1B000000001B0A0A0A0404040E83
:1057A000000000001F0908040402121F00001C046E
:1057B00004040404040404041C000002020404049D
:1057C0000808081010000E0808080808080808084B
:1057D0000E00040A000000000000000000000000AD
:1057E0000000000000000000003F02040000000074
:1057F00000000000000000000000000C121C123C21
:10580000000000030202020E1212120E000000003D
:105810000000001C1202120C000000181010101CD6
:105820001212123C000000000000000C121E021CAC
:10583000000000182404041E0404041E00000000DC
:105840000000003C120C021C221C00030202020E8B
:105850001212123700000004040000060404040EB3
:10586000000000080800000C0808080808070003EA
:105870000202021A0A060A130000000704040404C4
:105880000404041F000000000000000F151515158A
:10589000000000000000000F12121237000000008C
:1058A0000000000C1212120C000000000000000F9B
:1058B0001212120E020700000000001C1212121C2D
:1058C000103800000000001B060202070000000064
:1058D0000000001E020C101E000000000004041E48
:1058E0000404041C000000000000001B1212123C03
:1058F000000000000000001B0A0A04040000000071
:1059000000000015150E0A0A000000000000001B30
:105910000A040A1B000000000000003312120C08E9
:10592000040300000000001E0804041E0000180804
:105930000808080C080808081800080808080808DB
:1059400008080808080806040404040804040404F9
:105950000600160900000000000000000000000022
:105960000000000000000000000000000000000037
:105970000008080808080808000018180000004877
:105980006C24120000000000000000000000000075
:10599000002424247F1212127F1212120000000031
:1059A000081C2A2A0A0C1828282A2A1C0808000081
:1059B0000022251515152A585454542200000000C1
:1059C000000C1212120A76252911916E00000006B1
:1059D000060403000000000000000000000000407A
:1059E00020101008080808080810102040000002C5
:1059F000040808101010101010080804020000001D
:105A0000000008086B1C1C6B080800000000000068
:105A10000000080808087F080808080000000000C7
:105A20000000000000000000000006060403000063
:105A3000000000000000FE00000000000000000068
:105A4000000000000000000000000606000000004A
:105A500080404020201010080804040202000000CA
:105A600000182442424242424242241800000000F0
:105A700000080E08080808080808083E0000000092
:105A8000003C4242422020100804427E00000000F8
:105A9000003C4242201820404042221C00000000EE
:105AA00000203028242422227E20207800000000BC
:105AB000007E0202021A26404042221C0000000022
:105AC00000382402021A2642424224180000000034
:105AD000007E2222101008080808080800000000B4
